{
  "contractName": "e2m",
  "abi": [
    {
      "inputs": [],
      "stateMutability": "nonpayable",
      "type": "constructor"
    },
    {
      "anonymous": false,
      "inputs": [
        {
          "indexed": true,
          "internalType": "address",
          "name": "owner",
          "type": "address"
        },
        {
          "indexed": true,
          "internalType": "address",
          "name": "approved",
          "type": "address"
        },
        {
          "indexed": true,
          "internalType": "uint256",
          "name": "tokenId",
          "type": "uint256"
        }
      ],
      "name": "Approval",
      "type": "event"
    },
    {
      "anonymous": false,
      "inputs": [
        {
          "indexed": true,
          "internalType": "address",
          "name": "owner",
          "type": "address"
        },
        {
          "indexed": true,
          "internalType": "address",
          "name": "operator",
          "type": "address"
        },
        {
          "indexed": false,
          "internalType": "bool",
          "name": "approved",
          "type": "bool"
        }
      ],
      "name": "ApprovalForAll",
      "type": "event"
    },
    {
      "anonymous": false,
      "inputs": [
        {
          "indexed": false,
          "internalType": "string",
          "name": "uri",
          "type": "string"
        }
      ],
      "name": "LogNewMetadata",
      "type": "event"
    },
    {
      "anonymous": false,
      "inputs": [
        {
          "indexed": false,
          "internalType": "string",
          "name": "description",
          "type": "string"
        }
      ],
      "name": "LogNewProvableQuery",
      "type": "event"
    },
    {
      "anonymous": false,
      "inputs": [
        {
          "indexed": true,
          "internalType": "address",
          "name": "previousOwner",
          "type": "address"
        },
        {
          "indexed": true,
          "internalType": "address",
          "name": "newOwner",
          "type": "address"
        }
      ],
      "name": "OwnershipTransferred",
      "type": "event"
    },
    {
      "anonymous": false,
      "inputs": [
        {
          "indexed": true,
          "internalType": "address",
          "name": "from",
          "type": "address"
        },
        {
          "indexed": true,
          "internalType": "address",
          "name": "to",
          "type": "address"
        },
        {
          "indexed": true,
          "internalType": "uint256",
          "name": "tokenId",
          "type": "uint256"
        }
      ],
      "name": "Transfer",
      "type": "event"
    },
    {
      "inputs": [
        {
          "internalType": "address",
          "name": "to",
          "type": "address"
        },
        {
          "internalType": "uint256",
          "name": "tokenId",
          "type": "uint256"
        }
      ],
      "name": "approve",
      "outputs": [],
      "stateMutability": "nonpayable",
      "type": "function"
    },
    {
      "inputs": [
        {
          "internalType": "address",
          "name": "owner",
          "type": "address"
        }
      ],
      "name": "balanceOf",
      "outputs": [
        {
          "internalType": "uint256",
          "name": "",
          "type": "uint256"
        }
      ],
      "stateMutability": "view",
      "type": "function"
    },
    {
      "inputs": [
        {
          "internalType": "uint256",
          "name": "tokenId",
          "type": "uint256"
        }
      ],
      "name": "getApproved",
      "outputs": [
        {
          "internalType": "address",
          "name": "",
          "type": "address"
        }
      ],
      "stateMutability": "view",
      "type": "function"
    },
    {
      "inputs": [
        {
          "internalType": "address",
          "name": "owner",
          "type": "address"
        },
        {
          "internalType": "address",
          "name": "operator",
          "type": "address"
        }
      ],
      "name": "isApprovedForAll",
      "outputs": [
        {
          "internalType": "bool",
          "name": "",
          "type": "bool"
        }
      ],
      "stateMutability": "view",
      "type": "function"
    },
    {
      "inputs": [],
      "name": "metadataURI",
      "outputs": [
        {
          "internalType": "string",
          "name": "",
          "type": "string"
        }
      ],
      "stateMutability": "view",
      "type": "function"
    },
    {
      "inputs": [],
      "name": "name",
      "outputs": [
        {
          "internalType": "string",
          "name": "",
          "type": "string"
        }
      ],
      "stateMutability": "view",
      "type": "function"
    },
    {
      "inputs": [],
      "name": "owner",
      "outputs": [
        {
          "internalType": "address",
          "name": "",
          "type": "address"
        }
      ],
      "stateMutability": "view",
      "type": "function"
    },
    {
      "inputs": [
        {
          "internalType": "uint256",
          "name": "tokenId",
          "type": "uint256"
        }
      ],
      "name": "ownerOf",
      "outputs": [
        {
          "internalType": "address",
          "name": "",
          "type": "address"
        }
      ],
      "stateMutability": "view",
      "type": "function"
    },
    {
      "inputs": [],
      "name": "renounceOwnership",
      "outputs": [],
      "stateMutability": "nonpayable",
      "type": "function"
    },
    {
      "inputs": [
        {
          "internalType": "address",
          "name": "from",
          "type": "address"
        },
        {
          "internalType": "address",
          "name": "to",
          "type": "address"
        },
        {
          "internalType": "uint256",
          "name": "tokenId",
          "type": "uint256"
        }
      ],
      "name": "safeTransferFrom",
      "outputs": [],
      "stateMutability": "nonpayable",
      "type": "function"
    },
    {
      "inputs": [
        {
          "internalType": "address",
          "name": "from",
          "type": "address"
        },
        {
          "internalType": "address",
          "name": "to",
          "type": "address"
        },
        {
          "internalType": "uint256",
          "name": "tokenId",
          "type": "uint256"
        },
        {
          "internalType": "bytes",
          "name": "_data",
          "type": "bytes"
        }
      ],
      "name": "safeTransferFrom",
      "outputs": [],
      "stateMutability": "nonpayable",
      "type": "function"
    },
    {
      "inputs": [
        {
          "internalType": "address",
          "name": "operator",
          "type": "address"
        },
        {
          "internalType": "bool",
          "name": "approved",
          "type": "bool"
        }
      ],
      "name": "setApprovalForAll",
      "outputs": [],
      "stateMutability": "nonpayable",
      "type": "function"
    },
    {
      "inputs": [
        {
          "internalType": "bytes4",
          "name": "interfaceId",
          "type": "bytes4"
        }
      ],
      "name": "supportsInterface",
      "outputs": [
        {
          "internalType": "bool",
          "name": "",
          "type": "bool"
        }
      ],
      "stateMutability": "view",
      "type": "function"
    },
    {
      "inputs": [],
      "name": "symbol",
      "outputs": [
        {
          "internalType": "string",
          "name": "",
          "type": "string"
        }
      ],
      "stateMutability": "view",
      "type": "function"
    },
    {
      "inputs": [
        {
          "internalType": "uint256",
          "name": "index",
          "type": "uint256"
        }
      ],
      "name": "tokenByIndex",
      "outputs": [
        {
          "internalType": "uint256",
          "name": "",
          "type": "uint256"
        }
      ],
      "stateMutability": "view",
      "type": "function"
    },
    {
      "inputs": [
        {
          "internalType": "address",
          "name": "owner",
          "type": "address"
        },
        {
          "internalType": "uint256",
          "name": "index",
          "type": "uint256"
        }
      ],
      "name": "tokenOfOwnerByIndex",
      "outputs": [
        {
          "internalType": "uint256",
          "name": "",
          "type": "uint256"
        }
      ],
      "stateMutability": "view",
      "type": "function"
    },
    {
      "inputs": [
        {
          "internalType": "uint256",
          "name": "tokenId",
          "type": "uint256"
        }
      ],
      "name": "tokenURI",
      "outputs": [
        {
          "internalType": "string",
          "name": "",
          "type": "string"
        }
      ],
      "stateMutability": "view",
      "type": "function"
    },
    {
      "inputs": [],
      "name": "totalSupply",
      "outputs": [
        {
          "internalType": "uint256",
          "name": "",
          "type": "uint256"
        }
      ],
      "stateMutability": "view",
      "type": "function"
    },
    {
      "inputs": [
        {
          "internalType": "address",
          "name": "from",
          "type": "address"
        },
        {
          "internalType": "address",
          "name": "to",
          "type": "address"
        },
        {
          "internalType": "uint256",
          "name": "tokenId",
          "type": "uint256"
        }
      ],
      "name": "transferFrom",
      "outputs": [],
      "stateMutability": "nonpayable",
      "type": "function"
    },
    {
      "inputs": [
        {
          "internalType": "address",
          "name": "newOwner",
          "type": "address"
        }
      ],
      "name": "transferOwnership",
      "outputs": [],
      "stateMutability": "nonpayable",
      "type": "function"
    },
    {
      "inputs": [
        {
          "internalType": "bytes32",
          "name": "myid",
          "type": "bytes32"
        },
        {
          "internalType": "string",
          "name": "result",
          "type": "string"
        }
      ],
      "name": "__callback",
      "outputs": [],
      "stateMutability": "nonpayable",
      "type": "function"
    },
    {
      "inputs": [
        {
          "internalType": "bytes32",
          "name": "_myid",
          "type": "bytes32"
        },
        {
          "internalType": "string",
          "name": "_result",
          "type": "string"
        },
        {
          "internalType": "bytes",
          "name": "_proof",
          "type": "bytes"
        }
      ],
      "name": "__callback",
      "outputs": [],
      "stateMutability": "nonpayable",
      "type": "function"
    },
    {
      "inputs": [
        {
          "internalType": "string",
          "name": "domainName",
          "type": "string"
        }
      ],
      "name": "update",
      "outputs": [],
      "stateMutability": "payable",
      "type": "function"
    }
  ],
  "bytecode": "0x60e0604052603660808181529062002e3760a0398051620000299160119160209091019062000127565b503480156200003757600080fd5b50604080518082018252600f81526e434f4c4c454354494f4e5f4e414d4560881b60208083019182528351808501909452601184527021a7a62622a1aa24a7a72faa24a1a5a2a960791b908401528151919291620000989160009162000127565b508051620000ae90600190602084019062000127565b505050620000cb620000c5620000d160201b60201c565b620000d5565b6200020a565b3390565b600a80546001600160a01b038381166001600160a01b0319831681179093556040519116919082907f8be0079c531659141344cd1fd0a4f28419497f9722a3daafe3b4186f6b6457e090600090a35050565b8280546200013590620001cd565b90600052602060002090601f016020900481019282620001595760008555620001a4565b82601f106200017457805160ff1916838001178555620001a4565b82800160010185558215620001a4579182015b82811115620001a457825182559160200191906001019062000187565b50620001b2929150620001b6565b5090565b5b80821115620001b25760008155600101620001b7565b600181811c90821680620001e257607f821691505b602082108114156200020457634e487b7160e01b600052602260045260246000fd5b50919050565b612c1d806200021a6000396000f3fe6080604052600436106101405760003560e01c806342842e0e116100b657806395d89b411161006f57806395d89b411461039c578063a22cb465146103b1578063b88d4fde146103d1578063c87b56dd146103f1578063e985e9c514610411578063f2fde38b1461045a57600080fd5b806342842e0e146102e95780634f6ccce7146103095780636352211e1461032957806370a0823114610349578063715018a6146103695780638da5cb5b1461037e57600080fd5b806318160ddd1161010857806318160ddd1461020b57806323b872dd1461022a57806327dc297e1461024a5780632f745c591461026a57806338bbfa501461028a5780633d7403a3146102d657600080fd5b806301ffc9a71461014557806303ee438c1461017a57806306fdde031461019c578063081812fc146101b1578063095ea7b3146101e9575b600080fd5b34801561015157600080fd5b506101656101603660046126f7565b61047a565b60405190151581526020015b60405180910390f35b34801561018657600080fd5b5061018f6104a5565b60405161017191906128b5565b3480156101a857600080fd5b5061018f610533565b3480156101bd57600080fd5b506101d16101cc366004612766565b6105c5565b6040516001600160a01b039091168152602001610171565b3480156101f557600080fd5b506102096102043660046125fe565b61065f565b005b34801561021757600080fd5b506008545b604051908152602001610171565b34801561023657600080fd5b5061020961024536600461251e565b610775565b34801561025657600080fd5b50610209610265366004612643565b6107a6565b34801561027657600080fd5b5061021c6102853660046125fe565b610892565b34801561029657600080fd5b506102096102a536600461268a565b50506000808052600e6020527fe710864318d4a32f37d6ce54cb3fadbef648dd12d8dbdf53973564d56b7f881c5550565b6102096102e4366004612731565b610928565b3480156102f557600080fd5b5061020961030436600461251e565b610aa8565b34801561031557600080fd5b5061021c610324366004612766565b610ac3565b34801561033557600080fd5b506101d1610344366004612766565b610b56565b34801561035557600080fd5b5061021c6103643660046124ab565b610bcd565b34801561037557600080fd5b50610209610c54565b34801561038a57600080fd5b50600a546001600160a01b03166101d1565b3480156103a857600080fd5b5061018f610cba565b3480156103bd57600080fd5b506102096103cc3660046125cb565b610cc9565b3480156103dd57600080fd5b506102096103ec36600461255f565b610cd8565b3480156103fd57600080fd5b5061018f61040c366004612766565b610d0a565b34801561041d57600080fd5b5061016561042c3660046124e5565b6001600160a01b03918216600090815260056020908152604080832093909416825291909152205460ff1690565b34801561046657600080fd5b506102096104753660046124ab565b610df2565b60006001600160e01b0319821663780e9d6360e01b148061049f575061049f82610ebd565b92915050565b601080546104b290612ae4565b80601f01602080910402602001604051908101604052809291908181526020018280546104de90612ae4565b801561052b5780601f106105005761010080835404028352916020019161052b565b820191906000526020600020905b81548152906001019060200180831161050e57829003601f168201915b505050505081565b60606000805461054290612ae4565b80601f016020809104026020016040519081016040528092919081815260200182805461056e90612ae4565b80156105bb5780601f10610590576101008083540402835291602001916105bb565b820191906000526020600020905b81548152906001019060200180831161059e57829003601f168201915b5050505050905090565b6000818152600260205260408120546001600160a01b03166106435760405162461bcd60e51b815260206004820152602c60248201527f4552433732313a20617070726f76656420717565727920666f72206e6f6e657860448201526b34b9ba32b73a103a37b5b2b760a11b60648201526084015b60405180910390fd5b506000908152600460205260409020546001600160a01b031690565b600061066a82610b56565b9050806001600160a01b0316836001600160a01b031614156106d85760405162461bcd60e51b815260206004820152602160248201527f4552433732313a20617070726f76616c20746f2063757272656e74206f776e656044820152603960f91b606482015260840161063a565b336001600160a01b03821614806106f457506106f4813361042c565b6107665760405162461bcd60e51b815260206004820152603860248201527f4552433732313a20617070726f76652063616c6c6572206973206e6f74206f7760448201527f6e6572206e6f7220617070726f76656420666f7220616c6c0000000000000000606482015260840161063a565b6107708383610f0d565b505050565b61077f3382610f7b565b61079b5760405162461bcd60e51b815260040161063a9061291a565b610770838383611072565b6107ae611219565b6001600160a01b0316336001600160a01b0316146107cb57600080fd5b7f7e03d733ca9b9824c8224a37fa3376f4f06a2065e07d7ef7d4a57df335d8149b816040516107fa91906128b5565b60405180910390a1600061082782604051806040016040528060018152602001603b60f81b815250611422565b90508060008151811061083c5761083c612b90565b602002602001015160109080519060200190610859929190612385565b508160128360405161086b91906127ab565b9081526020016040518091039020908051906020019061088c929190612385565b50505050565b600061089d83610bcd565b82106108ff5760405162461bcd60e51b815260206004820152602b60248201527f455243373231456e756d657261626c653a206f776e657220696e646578206f7560448201526a74206f6620626f756e647360a81b606482015260840161063a565b506001600160a01b03919091166000908152600660209081526040808320938352929052205490565b7fc4dc360d0a9c0677a3379ae0a3d81e887f761e65fdf3d7e00859d1bcd3c473896040516109a69060208082526036908201527f50726f7661626c65207175657279207761732073656e742c207374616e64696e6040820152753390313c903337b9103a34329030b739bbb2b917171760511b606082015260800190565b60405180910390a16000610a81604051806040016040528060058152602001640d4e6dedc560db1b815250601180546109de90612ae4565b80601f0160208091040260200160405190810160405280929190818152602001828054610a0a90612ae4565b8015610a575780601f10610a2c57610100808354040283529160200191610a57565b820191906000526020600020905b815481529060010190602001808311610a3a57829003601f168201915b50505050508460405180604001604052806006815260200165292e6e616d6560d01b815250611506565b90506107706040518060400160405280600381526020016215549360ea1b81525082611538565b61077083838360405180602001604052806000815250610cd8565b6000610ace60085490565b8210610b315760405162461bcd60e51b815260206004820152602c60248201527f455243373231456e756d657261626c653a20676c6f62616c20696e646578206f60448201526b7574206f6620626f756e647360a01b606482015260840161063a565b60088281548110610b4457610b44612b90565b90600052602060002001549050919050565b6000818152600260205260408120546001600160a01b03168061049f5760405162461bcd60e51b815260206004820152602960248201527f4552433732313a206f776e657220717565727920666f72206e6f6e657869737460448201526832b73a103a37b5b2b760b91b606482015260840161063a565b60006001600160a01b038216610c385760405162461bcd60e51b815260206004820152602a60248201527f4552433732313a2062616c616e636520717565727920666f7220746865207a65604482015269726f206164647265737360b01b606482015260840161063a565b506001600160a01b031660009081526003602052604090205490565b600a546001600160a01b03163314610cae5760405162461bcd60e51b815260206004820181905260248201527f4f776e61626c653a2063616c6c6572206973206e6f7420746865206f776e6572604482015260640161063a565b610cb860006117f2565b565b60606001805461054290612ae4565b610cd4338383611844565b5050565b610ce23383610f7b565b610cfe5760405162461bcd60e51b815260040161063a9061291a565b61088c84848484611913565b6000818152600260205260409020546060906001600160a01b0316610d895760405162461bcd60e51b815260206004820152602f60248201527f4552433732314d657461646174613a2055524920717565727920666f72206e6f60448201526e3732bc34b9ba32b73a103a37b5b2b760891b606482015260840161063a565b6000610da060408051602081019091526000815290565b90506000815111610dc05760405180602001604052806000815250610deb565b80610dca84611946565b604051602001610ddb9291906127c7565b6040516020818303038152906040525b9392505050565b600a546001600160a01b03163314610e4c5760405162461bcd60e51b815260206004820181905260248201527f4f776e61626c653a2063616c6c6572206973206e6f7420746865206f776e6572604482015260640161063a565b6001600160a01b038116610eb15760405162461bcd60e51b815260206004820152602660248201527f4f776e61626c653a206e6577206f776e657220697320746865207a65726f206160448201526564647265737360d01b606482015260840161063a565b610eba816117f2565b50565b60006001600160e01b031982166380ac58cd60e01b1480610eee57506001600160e01b03198216635b5e139f60e01b145b8061049f57506301ffc9a760e01b6001600160e01b031983161461049f565b600081815260046020526040902080546001600160a01b0319166001600160a01b0384169081179091558190610f4282610b56565b6001600160a01b03167f8c5be1e5ebec7d5bd14f71427d1e84f3dd0314c0f7b2291e5b200ac8c7c3b92560405160405180910390a45050565b6000818152600260205260408120546001600160a01b0316610ff45760405162461bcd60e51b815260206004820152602c60248201527f4552433732313a206f70657261746f7220717565727920666f72206e6f6e657860448201526b34b9ba32b73a103a37b5b2b760a11b606482015260840161063a565b6000610fff83610b56565b9050806001600160a01b0316846001600160a01b0316148061104657506001600160a01b0380821660009081526005602090815260408083209388168352929052205460ff165b8061106a5750836001600160a01b031661105f846105c5565b6001600160a01b0316145b949350505050565b826001600160a01b031661108582610b56565b6001600160a01b0316146110e95760405162461bcd60e51b815260206004820152602560248201527f4552433732313a207472616e736665722066726f6d20696e636f72726563742060448201526437bbb732b960d91b606482015260840161063a565b6001600160a01b03821661114b5760405162461bcd60e51b8152602060048201526024808201527f4552433732313a207472616e7366657220746f20746865207a65726f206164646044820152637265737360e01b606482015260840161063a565b611156838383611a44565b611161600082610f0d565b6001600160a01b038316600090815260036020526040812080546001929061118a908490612aa1565b90915550506001600160a01b03821660009081526003602052604081208054600192906111b890849061296b565b909155505060008181526002602052604080822080546001600160a01b0319166001600160a01b0386811691821790925591518493918716917fddf252ad1be2c89b69c2b068fc378daa952ba7f163c4a11628f55a4df523b3ef91a4505050565b600c546000906001600160a01b0316158061123e5750600c546001600160a01b03163b155b1561124f5761124d6000611afc565b505b600c60009054906101000a90046001600160a01b03166001600160a01b03166338cc48316040518163ffffffff1660e01b8152600401602060405180830381600087803b15801561129f57600080fd5b505af11580156112b3573d6000803e3d6000fd5b505050506040513d601f19601f820116820180604052508101906112d791906124c8565b600b546001600160a01b0390811691161461139557600c60009054906101000a90046001600160a01b03166001600160a01b03166338cc48316040518163ffffffff1660e01b8152600401602060405180830381600087803b15801561133c57600080fd5b505af1158015611350573d6000803e3d6000fd5b505050506040513d601f19601f8201168201806040525081019061137491906124c8565b600b80546001600160a01b0319166001600160a01b03929092169190911790555b600b60009054906101000a90046001600160a01b03166001600160a01b031663c281d19e6040518163ffffffff1660e01b8152600401602060405180830381600087803b1580156113e557600080fd5b505af11580156113f9573d6000803e3d6000fd5b505050506040513d601f19601f8201168201806040525081019061141d91906124c8565b905090565b604080516002808252606082810190935260009190816020015b606081526020019060019003908161143c5750506040805180820182526000808252602091820181905282518084018452885181528883018184015283518085018552828152830191909152825180840190935286518352868201918301919091529192506114b36114ae8383611b06565b611b2c565b836000815181106114c6576114c6612b90565b60209081029190910101526114de6114ae8383611b06565b836001815181106114f1576114f1612b90565b60209081029190910101525090949350505050565b60608484848460405160200161151f94939291906127f6565b6040516020818303038152906040529050949350505050565b600c546000906001600160a01b0316158061155d5750600c546001600160a01b03163b155b1561156e5761156c6000611afc565b505b600c60009054906101000a90046001600160a01b03166001600160a01b03166338cc48316040518163ffffffff1660e01b8152600401602060405180830381600087803b1580156115be57600080fd5b505af11580156115d2573d6000803e3d6000fd5b505050506040513d601f19601f820116820180604052508101906115f691906124c8565b600b546001600160a01b039081169116146116b457600c60009054906101000a90046001600160a01b03166001600160a01b03166338cc48316040518163ffffffff1660e01b8152600401602060405180830381600087803b15801561165b57600080fd5b505af115801561166f573d6000803e3d6000fd5b505050506040513d601f19601f8201168201806040525081019061169391906124c8565b600b80546001600160a01b0319166001600160a01b03929092169190911790555b600b5460405163524f388960e01b81526000916001600160a01b03169063524f3889906116e59087906004016128b5565b602060405180830381600087803b1580156116ff57600080fd5b505af1158015611713573d6000803e3d6000fd5b505050506040513d601f19601f82011682018060405250810190611737919061262a565b90506117463a62030d40612a82565b61175890670de0b6b3a764000061296b565b81111561176957506000905061049f565b600b5460405163adf59f9960e01b81526001600160a01b039091169063adf59f999083906117a0906000908990899060040161288a565b6020604051808303818588803b1580156117b957600080fd5b505af11580156117cd573d6000803e3d6000fd5b50505050506040513d601f19601f8201168201806040525081019061106a919061262a565b600a80546001600160a01b038381166001600160a01b0319831681179093556040519116919082907f8be0079c531659141344cd1fd0a4f28419497f9722a3daafe3b4186f6b6457e090600090a35050565b816001600160a01b0316836001600160a01b031614156118a65760405162461bcd60e51b815260206004820152601960248201527f4552433732313a20617070726f766520746f2063616c6c657200000000000000604482015260640161063a565b6001600160a01b03838116600081815260056020908152604080832094871680845294825291829020805460ff191686151590811790915591519182527f17307eab39ab6107e8899845ad3d59bd9653f200f220920489ca2b5937696c31910160405180910390a3505050565b61191e848484611072565b61192a84848484611b95565b61088c5760405162461bcd60e51b815260040161063a906128c8565b60608161196a5750506040805180820190915260018152600360fc1b602082015290565b8160005b8115611994578061197e81612b1f565b915061198d9050600a83612983565b915061196e565b60008167ffffffffffffffff8111156119af576119af612ba6565b6040519080825280601f01601f1916602001820160405280156119d9576020820181803683370190505b5090505b841561106a576119ee600183612aa1565b91506119fb600a86612b3a565b611a0690603061296b565b60f81b818381518110611a1b57611a1b612b90565b60200101906001600160f81b031916908160001a905350611a3d600a86612983565b94506119dd565b6001600160a01b038316611a9f57611a9a81600880546000838152600960205260408120829055600182018355919091527ff3f7a9fe364faab93b216da50a3214154f22a0a2b415b23a84c8169e8b636ee30155565b611ac2565b816001600160a01b0316836001600160a01b031614611ac257611ac28382611c9f565b6001600160a01b038216611ad95761077081611d3c565b826001600160a01b0316826001600160a01b031614610770576107708282611deb565b600061049f611e2f565b6040805180820190915260008082526020820152611b2583838361212b565b5092915050565b60606000826000015167ffffffffffffffff811115611b4d57611b4d612ba6565b6040519080825280601f01601f191660200182016040528015611b77576020820181803683370190505b5090506000602082019050611b2581856020015186600001516121d7565b60006001600160a01b0384163b15611c9757604051630a85bd0160e11b81526001600160a01b0385169063150b7a0290611bd990339089908890889060040161284d565b602060405180830381600087803b158015611bf357600080fd5b505af1925050508015611c23575060408051601f3d908101601f19168201909252611c2091810190612714565b60015b611c7d573d808015611c51576040519150601f19603f3d011682016040523d82523d6000602084013e611c56565b606091505b508051611c755760405162461bcd60e51b815260040161063a906128c8565b805181602001fd5b6001600160e01b031916630a85bd0160e11b14905061106a565b50600161106a565b60006001611cac84610bcd565b611cb69190612aa1565b600083815260076020526040902054909150808214611d09576001600160a01b03841660009081526006602090815260408083208584528252808320548484528184208190558352600790915290208190555b5060009182526007602090815260408084208490556001600160a01b039094168352600681528383209183525290812055565b600854600090611d4e90600190612aa1565b60008381526009602052604081205460088054939450909284908110611d7657611d76612b90565b906000526020600020015490508060088381548110611d9757611d97612b90565b6000918252602080832090910192909255828152600990915260408082208490558582528120556008805480611dcf57611dcf612b7a565b6001900381819060005260206000200160009055905550505050565b6000611df683610bcd565b6001600160a01b039093166000908152600660209081526040808320868452825280832085905593825260079052919091209190915550565b6000731d3b2638a7cc9f2cb3d298a3da7a90b67e5506ed3b15611ea357600c80546001600160a01b031916731d3b2638a7cc9f2cb3d298a3da7a90b67e5506ed17905560408051808201909152600b81526a195d1a17db585a5b9b995d60aa1b6020820152611e9d90612251565b50600190565b73c03a2615d5efaf5f49f60b7bb6583eaec212fdf13b15611f0f57600c80546001600160a01b03191673c03a2615d5efaf5f49f60b7bb6583eaec212fdf1178155604080518082019091529081526b6574685f726f707374656e3360a01b6020820152611e9d90612251565b73b7a07bcf2ba2f2703b24c0691b5278999c59ac7e3b15611f7957600c80546001600160a01b03191673b7a07bcf2ba2f2703b24c0691b5278999c59ac7e17905560408051808201909152600981526832ba342fb5b7bb30b760b91b6020820152611e9d90612251565b73146500cfd35b22e4a392fe0adc06de1a1368ed483b15611fe557600c80546001600160a01b03191673146500cfd35b22e4a392fe0adc06de1a1368ed4817905560408051808201909152600b81526a6574685f72696e6b65627960a81b6020820152611e9d90612251565b73a2998efd205fb9d4b4963afb70778d6354ad3a413b1561205057600c80546001600160a01b03191673a2998efd205fb9d4b4963afb70778d6354ad3a4117905560408051808201909152600a8152696574685f676f65726c6960b01b6020820152611e9d90612251565b736f485c8bf6fc43ea212e93bbf8ce046c7f1cb4753b156120975750600c80546001600160a01b031916736f485c8bf6fc43ea212e93bbf8ce046c7f1cb475179055600190565b7320e12a1f859b3feae5fb2a0a32c18f5a65555bbf3b156120de5750600c80546001600160a01b0319167320e12a1f859b3feae5fb2a0a32c18f5a65555bbf179055600190565b7351efaf4c8b3c9afbd5ab9f4bbc82784ab6ef8faa3b156121255750600c80546001600160a01b0319167351efaf4c8b3c9afbd5ab9f4bbc82784ab6ef8faa179055600190565b50600090565b6040805180820190915260008082526020820152600061215d8560000151866020015186600001518760200151612264565b6020808701805191860191909152519091506121799082612aa1565b83528451602086015161218c919061296b565b81141561219c57600085526121ce565b835183516121aa919061296b565b855186906121b9908390612aa1565b90525083516121c8908261296b565b60208601525b50909392505050565b6020811061220f57815183526121ee60208461296b565b92506121fb60208361296b565b9150612208602082612aa1565b90506121d7565b600019811561223e576001612225836020612aa1565b612231906101006129da565b61223b9190612aa1565b90505b9151835183169219169190911790915250565b8051610cd490600d906020840190612385565b60008381868511612370576020851161231e57600085156122b057600161228c876020612aa1565b612297906008612a82565b6122a29060026129da565b6122ac9190612aa1565b1990505b845181166000876122c18b8b61296b565b6122cb9190612aa1565b855190915083165b828114612310578186106122f8576122eb8b8b61296b565b965050505050505061106a565b8561230281612b1f565b9650508386511690506122d3565b85965050505050505061106a565b508383206000905b6123308689612aa1565b821161236e578583208181141561234d578394505050505061106a565b61235860018561296b565b935050818061236690612b1f565b925050612326565b505b61237a878761296b565b979650505050505050565b82805461239190612ae4565b90600052602060002090601f0160209004810192826123b357600085556123f9565b82601f106123cc57805160ff19168380011785556123f9565b828001600101855582156123f9579182015b828111156123f95782518255916020019190600101906123de565b50612405929150612409565b5090565b5b80821115612405576000815560010161240a565b600082601f83011261242f57600080fd5b813567ffffffffffffffff8082111561244a5761244a612ba6565b604051601f8301601f19908116603f0116810190828211818310171561247257612472612ba6565b8160405283815286602085880101111561248b57600080fd5b836020870160208301376000602085830101528094505050505092915050565b6000602082840312156124bd57600080fd5b8135610deb81612bbc565b6000602082840312156124da57600080fd5b8151610deb81612bbc565b600080604083850312156124f857600080fd5b823561250381612bbc565b9150602083013561251381612bbc565b809150509250929050565b60008060006060848603121561253357600080fd5b833561253e81612bbc565b9250602084013561254e81612bbc565b929592945050506040919091013590565b6000806000806080858703121561257557600080fd5b843561258081612bbc565b9350602085013561259081612bbc565b925060408501359150606085013567ffffffffffffffff8111156125b357600080fd5b6125bf8782880161241e565b91505092959194509250565b600080604083850312156125de57600080fd5b82356125e981612bbc565b91506020830135801515811461251357600080fd5b6000806040838503121561261157600080fd5b823561261c81612bbc565b946020939093013593505050565b60006020828403121561263c57600080fd5b5051919050565b6000806040838503121561265657600080fd5b82359150602083013567ffffffffffffffff81111561267457600080fd5b6126808582860161241e565b9150509250929050565b60008060006060848603121561269f57600080fd5b83359250602084013567ffffffffffffffff808211156126be57600080fd5b6126ca8783880161241e565b935060408601359150808211156126e057600080fd5b506126ed8682870161241e565b9150509250925092565b60006020828403121561270957600080fd5b8135610deb81612bd1565b60006020828403121561272657600080fd5b8151610deb81612bd1565b60006020828403121561274357600080fd5b813567ffffffffffffffff81111561275a57600080fd5b61106a8482850161241e565b60006020828403121561277857600080fd5b5035919050565b60008151808452612797816020860160208601612ab8565b601f01601f19169290920160200192915050565b600082516127bd818460208701612ab8565b9190910192915050565b600083516127d9818460208801612ab8565b8351908301906127ed818360208801612ab8565b01949350505050565b60008551612808818460208a01612ab8565b85519083019061281c818360208a01612ab8565b855191019061282f818360208901612ab8565b8451910190612842818360208801612ab8565b019695505050505050565b6001600160a01b03858116825284166020820152604081018390526080606082018190526000906128809083018461277f565b9695505050505050565b8381526060602082015260006128a3606083018561277f565b8281036040840152612880818561277f565b602081526000610deb602083018461277f565b60208082526032908201527f4552433732313a207472616e7366657220746f206e6f6e20455243373231526560408201527131b2b4bb32b91034b6b83632b6b2b73a32b960711b606082015260800190565b60208082526031908201527f4552433732313a207472616e736665722063616c6c6572206973206e6f74206f6040820152701ddb995c881b9bdc88185c1c1c9bdd9959607a1b606082015260800190565b6000821982111561297e5761297e612b4e565b500190565b60008261299257612992612b64565b500490565b600181815b808511156129d25781600019048211156129b8576129b8612b4e565b808516156129c557918102915b93841c939080029061299c565b509250929050565b6000610deb83836000826129f05750600161049f565b816129fd5750600061049f565b8160018114612a135760028114612a1d57612a39565b600191505061049f565b60ff841115612a2e57612a2e612b4e565b50506001821b61049f565b5060208310610133831016604e8410600b8410161715612a5c575081810a61049f565b612a668383612997565b8060001904821115612a7a57612a7a612b4e565b029392505050565b6000816000190483118215151615612a9c57612a9c612b4e565b500290565b600082821015612ab357612ab3612b4e565b500390565b60005b83811015612ad3578181015183820152602001612abb565b8381111561088c5750506000910152565b600181811c90821680612af857607f821691505b60208210811415612b1957634e487b7160e01b600052602260045260246000fd5b50919050565b6000600019821415612b3357612b33612b4e565b5060010190565b600082612b4957612b49612b64565b500690565b634e487b7160e01b600052601160045260246000fd5b634e487b7160e01b600052601260045260246000fd5b634e487b7160e01b600052603160045260246000fd5b634e487b7160e01b600052603260045260246000fd5b634e487b7160e01b600052604160045260246000fd5b6001600160a01b0381168114610eba57600080fd5b6001600160e01b031981168114610eba57600080fdfea2646970667358221220867f0c5d87891c0f14dcfb573f0c268740756a7c3ae1a14cc29eb4744cc896cf64736f6c63430008070033687474703a2f2f332e3233352e3139322e3230363a333030302f65326d2f6765742f6d657461646174612f746573746e65742d76332f",
  "immutableReferences": {},
  "source": "// File: @ensdomains/resolver/contracts/Resolver.sol\npragma solidity >=0.4.24;\n\ninterface ETHRegistrarController {\n    function ownerOf(uint256 tokenId) external view returns (address owner);\n}\n\npragma solidity >= 0.7.0 < 0.9.0;\n\nimport \"./provableAPI.sol\";\nimport \"./StringUtils.sol\";\nimport \"./Strings.sol\";\n\nimport \"@openzeppelin/contracts/token/ERC721/extensions/ERC721Enumerable.sol\";\nimport \"@openzeppelin/contracts/access/Ownable.sol\";\n\ncontract e2m is ERC721Enumerable, Ownable, usingProvable {\n\n    using strings for *;\n\n    string public metadataURI;\n    string private metadataQueryBaseURI = \"http://3.235.192.206:3000/e2m/get/metadata/testnet-v3/\";\n\n    event LogNewMetadata(string uri);\n    event LogNewProvableQuery(string description);\n\n    mapping(string => string) private metadataURIMap;\n\n    constructor()\n    ERC721(\"COLLECTION_NAME\", \"COLLECTION_TICKER\")\n    {\n//        update(\"kola102.eth\"); // First check at contract creation...\n    }\n\n    function stringConcat(string memory stringA, string memory stringB, string memory stringC, string memory stringD) internal pure returns (string memory) {\n        return string(abi.encodePacked(stringA, stringB, stringC, stringD));\n    }\n\n    function sliceString(string memory str, string memory deli) private returns (string[] memory) {\n        string[] memory parts = new string[](2);\n        strings.slice memory s = str.toSlice();\n        strings.slice memory delim = deli.toSlice();\n        parts[0] = s.split(delim).toString();\n        parts[1] = s.split(delim).toString();\n        return parts;\n    }\n\n    function __callback(\n        bytes32 myid,\n        string memory result\n    )\n        public\n        override\n    {\n        require(msg.sender == provable_cbAddress());\n        emit LogNewMetadata(result);\n\n        string[] memory temp = sliceString(result, \";\");\n        metadataURI = temp[0];\n        metadataURIMap[result] = result;\n    }\n\n    function update(string memory domainName)\n        public\n        payable\n    {\n        emit LogNewProvableQuery(\"Provable query was sent, standing by for the answer...\");\n        string memory query = stringConcat(\"json(\", metadataQueryBaseURI, domainName, \").name\");\n        provable_query(\"URL\", query);\n    }\n}\n",
  "sourcePath": "/Users/cacikkong/Documents/Kola/dev/e2m_v3/contracts/Ens2Music.sol",
  "compiler": {
    "name": "solc",
    "version": "0.8.7+commit.e28d00a7.Emscripten.clang"
  },
  "schemaVersion": "3.4.7",
  "updatedAt": "2022-05-28T19:13:41.558Z",
  "devdoc": {
    "kind": "dev",
    "methods": {
      "approve(address,uint256)": {
        "details": "See {IERC721-approve}."
      },
      "balanceOf(address)": {
        "details": "See {IERC721-balanceOf}."
      },
      "getApproved(uint256)": {
        "details": "See {IERC721-getApproved}."
      },
      "isApprovedForAll(address,address)": {
        "details": "See {IERC721-isApprovedForAll}."
      },
      "name()": {
        "details": "See {IERC721Metadata-name}."
      },
      "owner()": {
        "details": "Returns the address of the current owner."
      },
      "ownerOf(uint256)": {
        "details": "See {IERC721-ownerOf}."
      },
      "renounceOwnership()": {
        "details": "Leaves the contract without owner. It will not be possible to call `onlyOwner` functions anymore. Can only be called by the current owner. NOTE: Renouncing ownership will leave the contract without an owner, thereby removing any functionality that is only available to the owner."
      },
      "safeTransferFrom(address,address,uint256)": {
        "details": "See {IERC721-safeTransferFrom}."
      },
      "safeTransferFrom(address,address,uint256,bytes)": {
        "details": "See {IERC721-safeTransferFrom}."
      },
      "setApprovalForAll(address,bool)": {
        "details": "See {IERC721-setApprovalForAll}."
      },
      "supportsInterface(bytes4)": {
        "details": "See {IERC165-supportsInterface}."
      },
      "symbol()": {
        "details": "See {IERC721Metadata-symbol}."
      },
      "tokenByIndex(uint256)": {
        "details": "See {IERC721Enumerable-tokenByIndex}."
      },
      "tokenOfOwnerByIndex(address,uint256)": {
        "details": "See {IERC721Enumerable-tokenOfOwnerByIndex}."
      },
      "tokenURI(uint256)": {
        "details": "See {IERC721Metadata-tokenURI}."
      },
      "totalSupply()": {
        "details": "See {IERC721Enumerable-totalSupply}."
      },
      "transferFrom(address,address,uint256)": {
        "details": "See {IERC721-transferFrom}."
      },
      "transferOwnership(address)": {
        "details": "Transfers ownership of the contract to a new account (`newOwner`). Can only be called by the current owner."
      }
    },
    "version": 1
  },
  "userdoc": {
    "kind": "user",
    "methods": {},
    "version": 1
  }
}