{
  "contractName": "Ens2Music",
  "abi": [
    {
      "inputs": [],
      "stateMutability": "nonpayable",
      "type": "constructor"
    },
    {
      "anonymous": false,
      "inputs": [
        {
          "indexed": true,
          "internalType": "address",
          "name": "owner",
          "type": "address"
        },
        {
          "indexed": true,
          "internalType": "address",
          "name": "approved",
          "type": "address"
        },
        {
          "indexed": true,
          "internalType": "uint256",
          "name": "tokenId",
          "type": "uint256"
        }
      ],
      "name": "Approval",
      "type": "event"
    },
    {
      "anonymous": false,
      "inputs": [
        {
          "indexed": true,
          "internalType": "address",
          "name": "owner",
          "type": "address"
        },
        {
          "indexed": true,
          "internalType": "address",
          "name": "operator",
          "type": "address"
        },
        {
          "indexed": false,
          "internalType": "bool",
          "name": "approved",
          "type": "bool"
        }
      ],
      "name": "ApprovalForAll",
      "type": "event"
    },
    {
      "anonymous": false,
      "inputs": [
        {
          "indexed": true,
          "internalType": "uint256",
          "name": "musicNftId",
          "type": "uint256"
        },
        {
          "indexed": true,
          "internalType": "address",
          "name": "ownerWalletAddress",
          "type": "address"
        },
        {
          "indexed": false,
          "internalType": "string",
          "name": "ensDomain",
          "type": "string"
        },
        {
          "indexed": false,
          "internalType": "uint256",
          "name": "genre",
          "type": "uint256"
        },
        {
          "indexed": false,
          "internalType": "string",
          "name": "metadataUri",
          "type": "string"
        }
      ],
      "name": "LogMusicNftCreated",
      "type": "event"
    },
    {
      "anonymous": false,
      "inputs": [
        {
          "indexed": true,
          "internalType": "uint256",
          "name": "musicPassId",
          "type": "uint256"
        },
        {
          "indexed": true,
          "internalType": "address",
          "name": "ownerWalletAddress",
          "type": "address"
        },
        {
          "indexed": false,
          "internalType": "string",
          "name": "ensDomain",
          "type": "string"
        },
        {
          "indexed": false,
          "internalType": "uint256",
          "name": "genre",
          "type": "uint256"
        }
      ],
      "name": "LogMusicPassCreated",
      "type": "event"
    },
    {
      "anonymous": false,
      "inputs": [
        {
          "indexed": false,
          "internalType": "string",
          "name": "ensDomain",
          "type": "string"
        },
        {
          "indexed": false,
          "internalType": "string",
          "name": "metadataUri",
          "type": "string"
        }
      ],
      "name": "LogNewMetadata",
      "type": "event"
    },
    {
      "anonymous": false,
      "inputs": [
        {
          "indexed": false,
          "internalType": "string",
          "name": "description",
          "type": "string"
        }
      ],
      "name": "LogNewProvableQuery",
      "type": "event"
    },
    {
      "anonymous": false,
      "inputs": [
        {
          "indexed": true,
          "internalType": "address",
          "name": "previousOwner",
          "type": "address"
        },
        {
          "indexed": true,
          "internalType": "address",
          "name": "newOwner",
          "type": "address"
        }
      ],
      "name": "OwnershipTransferred",
      "type": "event"
    },
    {
      "anonymous": false,
      "inputs": [
        {
          "indexed": true,
          "internalType": "address",
          "name": "from",
          "type": "address"
        },
        {
          "indexed": true,
          "internalType": "address",
          "name": "to",
          "type": "address"
        },
        {
          "indexed": true,
          "internalType": "uint256",
          "name": "tokenId",
          "type": "uint256"
        }
      ],
      "name": "Transfer",
      "type": "event"
    },
    {
      "inputs": [
        {
          "internalType": "address",
          "name": "to",
          "type": "address"
        },
        {
          "internalType": "uint256",
          "name": "tokenId",
          "type": "uint256"
        }
      ],
      "name": "approve",
      "outputs": [],
      "stateMutability": "nonpayable",
      "type": "function"
    },
    {
      "inputs": [
        {
          "internalType": "address",
          "name": "owner",
          "type": "address"
        }
      ],
      "name": "balanceOf",
      "outputs": [
        {
          "internalType": "uint256",
          "name": "",
          "type": "uint256"
        }
      ],
      "stateMutability": "view",
      "type": "function"
    },
    {
      "inputs": [
        {
          "internalType": "uint256",
          "name": "tokenId",
          "type": "uint256"
        }
      ],
      "name": "getApproved",
      "outputs": [
        {
          "internalType": "address",
          "name": "",
          "type": "address"
        }
      ],
      "stateMutability": "view",
      "type": "function"
    },
    {
      "inputs": [
        {
          "internalType": "address",
          "name": "owner",
          "type": "address"
        },
        {
          "internalType": "address",
          "name": "operator",
          "type": "address"
        }
      ],
      "name": "isApprovedForAll",
      "outputs": [
        {
          "internalType": "bool",
          "name": "",
          "type": "bool"
        }
      ],
      "stateMutability": "view",
      "type": "function"
    },
    {
      "inputs": [
        {
          "internalType": "string",
          "name": "",
          "type": "string"
        }
      ],
      "name": "musicGenreMap",
      "outputs": [
        {
          "internalType": "uint8",
          "name": "",
          "type": "uint8"
        }
      ],
      "stateMutability": "view",
      "type": "function"
    },
    {
      "inputs": [],
      "name": "name",
      "outputs": [
        {
          "internalType": "string",
          "name": "",
          "type": "string"
        }
      ],
      "stateMutability": "view",
      "type": "function"
    },
    {
      "inputs": [],
      "name": "owner",
      "outputs": [
        {
          "internalType": "address",
          "name": "",
          "type": "address"
        }
      ],
      "stateMutability": "view",
      "type": "function"
    },
    {
      "inputs": [
        {
          "internalType": "uint256",
          "name": "tokenId",
          "type": "uint256"
        }
      ],
      "name": "ownerOf",
      "outputs": [
        {
          "internalType": "address",
          "name": "",
          "type": "address"
        }
      ],
      "stateMutability": "view",
      "type": "function"
    },
    {
      "inputs": [],
      "name": "paused",
      "outputs": [
        {
          "internalType": "bool",
          "name": "",
          "type": "bool"
        }
      ],
      "stateMutability": "view",
      "type": "function"
    },
    {
      "inputs": [],
      "name": "renounceOwnership",
      "outputs": [],
      "stateMutability": "nonpayable",
      "type": "function"
    },
    {
      "inputs": [
        {
          "internalType": "address",
          "name": "from",
          "type": "address"
        },
        {
          "internalType": "address",
          "name": "to",
          "type": "address"
        },
        {
          "internalType": "uint256",
          "name": "tokenId",
          "type": "uint256"
        }
      ],
      "name": "safeTransferFrom",
      "outputs": [],
      "stateMutability": "nonpayable",
      "type": "function"
    },
    {
      "inputs": [
        {
          "internalType": "address",
          "name": "from",
          "type": "address"
        },
        {
          "internalType": "address",
          "name": "to",
          "type": "address"
        },
        {
          "internalType": "uint256",
          "name": "tokenId",
          "type": "uint256"
        },
        {
          "internalType": "bytes",
          "name": "_data",
          "type": "bytes"
        }
      ],
      "name": "safeTransferFrom",
      "outputs": [],
      "stateMutability": "nonpayable",
      "type": "function"
    },
    {
      "inputs": [
        {
          "internalType": "address",
          "name": "operator",
          "type": "address"
        },
        {
          "internalType": "bool",
          "name": "approved",
          "type": "bool"
        }
      ],
      "name": "setApprovalForAll",
      "outputs": [],
      "stateMutability": "nonpayable",
      "type": "function"
    },
    {
      "inputs": [
        {
          "internalType": "bytes4",
          "name": "interfaceId",
          "type": "bytes4"
        }
      ],
      "name": "supportsInterface",
      "outputs": [
        {
          "internalType": "bool",
          "name": "",
          "type": "bool"
        }
      ],
      "stateMutability": "view",
      "type": "function"
    },
    {
      "inputs": [],
      "name": "symbol",
      "outputs": [
        {
          "internalType": "string",
          "name": "",
          "type": "string"
        }
      ],
      "stateMutability": "view",
      "type": "function"
    },
    {
      "inputs": [
        {
          "internalType": "uint256",
          "name": "index",
          "type": "uint256"
        }
      ],
      "name": "tokenByIndex",
      "outputs": [
        {
          "internalType": "uint256",
          "name": "",
          "type": "uint256"
        }
      ],
      "stateMutability": "view",
      "type": "function"
    },
    {
      "inputs": [
        {
          "internalType": "address",
          "name": "owner",
          "type": "address"
        },
        {
          "internalType": "uint256",
          "name": "index",
          "type": "uint256"
        }
      ],
      "name": "tokenOfOwnerByIndex",
      "outputs": [
        {
          "internalType": "uint256",
          "name": "",
          "type": "uint256"
        }
      ],
      "stateMutability": "view",
      "type": "function"
    },
    {
      "inputs": [
        {
          "internalType": "uint256",
          "name": "tokenId",
          "type": "uint256"
        }
      ],
      "name": "tokenURI",
      "outputs": [
        {
          "internalType": "string",
          "name": "",
          "type": "string"
        }
      ],
      "stateMutability": "view",
      "type": "function"
    },
    {
      "inputs": [],
      "name": "totalSupply",
      "outputs": [
        {
          "internalType": "uint256",
          "name": "",
          "type": "uint256"
        }
      ],
      "stateMutability": "view",
      "type": "function"
    },
    {
      "inputs": [
        {
          "internalType": "address",
          "name": "from",
          "type": "address"
        },
        {
          "internalType": "address",
          "name": "to",
          "type": "address"
        },
        {
          "internalType": "uint256",
          "name": "tokenId",
          "type": "uint256"
        }
      ],
      "name": "transferFrom",
      "outputs": [],
      "stateMutability": "nonpayable",
      "type": "function"
    },
    {
      "inputs": [
        {
          "internalType": "address",
          "name": "newOwner",
          "type": "address"
        }
      ],
      "name": "transferOwnership",
      "outputs": [],
      "stateMutability": "nonpayable",
      "type": "function"
    },
    {
      "inputs": [
        {
          "internalType": "bytes32",
          "name": "myid",
          "type": "bytes32"
        },
        {
          "internalType": "string",
          "name": "result",
          "type": "string"
        }
      ],
      "name": "__callback",
      "outputs": [],
      "stateMutability": "nonpayable",
      "type": "function"
    },
    {
      "inputs": [
        {
          "internalType": "bytes32",
          "name": "_myid",
          "type": "bytes32"
        },
        {
          "internalType": "string",
          "name": "_result",
          "type": "string"
        },
        {
          "internalType": "bytes",
          "name": "_proof",
          "type": "bytes"
        }
      ],
      "name": "__callback",
      "outputs": [],
      "stateMutability": "nonpayable",
      "type": "function"
    },
    {
      "inputs": [
        {
          "internalType": "string",
          "name": "domainName",
          "type": "string"
        }
      ],
      "name": "update",
      "outputs": [],
      "stateMutability": "payable",
      "type": "function"
    },
    {
      "inputs": [
        {
          "internalType": "string",
          "name": "domainName",
          "type": "string"
        },
        {
          "internalType": "uint8",
          "name": "genreId",
          "type": "uint8"
        }
      ],
      "name": "purchaseMusicPass",
      "outputs": [],
      "stateMutability": "payable",
      "type": "function"
    },
    {
      "inputs": [
        {
          "internalType": "string",
          "name": "domainName",
          "type": "string"
        }
      ],
      "name": "redeemMusicNFT",
      "outputs": [
        {
          "internalType": "uint256",
          "name": "",
          "type": "uint256"
        }
      ],
      "stateMutability": "payable",
      "type": "function"
    },
    {
      "inputs": [],
      "name": "getPurchsePrice",
      "outputs": [
        {
          "internalType": "uint256",
          "name": "",
          "type": "uint256"
        }
      ],
      "stateMutability": "view",
      "type": "function"
    },
    {
      "inputs": [
        {
          "internalType": "string",
          "name": "domainName",
          "type": "string"
        }
      ],
      "name": "getMetadataByDomain",
      "outputs": [
        {
          "internalType": "string",
          "name": "",
          "type": "string"
        }
      ],
      "stateMutability": "view",
      "type": "function"
    },
    {
      "inputs": [
        {
          "internalType": "uint256",
          "name": "newPrice",
          "type": "uint256"
        }
      ],
      "name": "setPurchasePrice",
      "outputs": [],
      "stateMutability": "nonpayable",
      "type": "function"
    },
    {
      "inputs": [
        {
          "internalType": "string",
          "name": "newMetadataQueryURI",
          "type": "string"
        }
      ],
      "name": "setMetadataQueryURI",
      "outputs": [],
      "stateMutability": "nonpayable",
      "type": "function"
    },
    {
      "inputs": [
        {
          "internalType": "bool",
          "name": "state",
          "type": "bool"
        }
      ],
      "name": "pause",
      "outputs": [],
      "stateMutability": "nonpayable",
      "type": "function"
    },
    {
      "inputs": [],
      "name": "withdraw",
      "outputs": [],
      "stateMutability": "payable",
      "type": "function"
    }
  ],
  "bytecode": "0x60e0604052603660808181529062003d9a60a0398051620000299160139160209091019062000159565b506040805180820190915260048082526305ccae8d60e31b6020909201918252620000579160149162000159565b50660110d9316ec0006015556103e860165560046017556018805460ff191690553480156200008557600080fd5b50604080518082018252600980825268456e73324d7573696360b81b602080840182815285518087019096529285528401528151919291620000ca9160009162000159565b508051620000e090600190602084019062000159565b505050620000fd620000f76200010360201b60201c565b62000107565b6200023c565b3390565b600a80546001600160a01b038381166001600160a01b0319831681179093556040519116919082907f8be0079c531659141344cd1fd0a4f28419497f9722a3daafe3b4186f6b6457e090600090a35050565b8280546200016790620001ff565b90600052602060002090601f0160209004810192826200018b5760008555620001d6565b82601f10620001a657805160ff1916838001178555620001d6565b82800160010185558215620001d6579182015b82811115620001d6578251825591602001919060010190620001b9565b50620001e4929150620001e8565b5090565b5b80821115620001e45760008155600101620001e9565b600181811c908216806200021457607f821691505b602082108114156200023657634e487b7160e01b600052602260045260246000fd5b50919050565b613b4e806200024c6000396000f3fe6080604052600436106101e35760003560e01c80635c975abb11610102578063a22cb46511610095578063d729666211610064578063d729666214610594578063e54c47f5146105b4578063e985e9c5146105c9578063f2fde38b1461061257600080fd5b8063a22cb46514610514578063ad4c80b914610534578063b88d4fde14610554578063c87b56dd1461057457600080fd5b80637cc7a596116100d15780637cc7a596146104ae57806381e5bdc2146104ce5780638da5cb5b146104e157806395d89b41146104ff57600080fd5b80635c975abb1461043f5780636352211e1461045957806370a0823114610479578063715018a61461049957600080fd5b80632f745c591161017a578063401628df11610149578063401628df1461039f57806342157f66146103ec57806342842e0e146103ff5780634f6ccce71461041f57600080fd5b80632f745c591461031857806338bbfa50146103385780633ccfd60b146103845780633d7403a31461038c57600080fd5b8063095ea7b3116101b6578063095ea7b31461029957806318160ddd146102b957806323b872dd146102d857806327dc297e146102f857600080fd5b806301ffc9a7146101e857806302329a291461021d57806306fdde031461023f578063081812fc14610261575b600080fd5b3480156101f457600080fd5b506102086102033660046133a6565b610632565b60405190151581526020015b60405180910390f35b34801561022957600080fd5b5061023d6102383660046132be565b61065d565b005b34801561024b57600080fd5b506102546106a3565b604051610214919061372d565b34801561026d57600080fd5b5061028161027c3660046134b4565b610735565b6040516001600160a01b039091168152602001610214565b3480156102a557600080fd5b5061023d6102b4366004613292565b6107ca565b3480156102c557600080fd5b506008545b604051908152602001610214565b3480156102e457600080fd5b5061023d6102f33660046131b0565b6108e0565b34801561030457600080fd5b5061023d6103133660046132f2565b610911565b34801561032457600080fd5b506102ca610333366004613292565b610a36565b34801561034457600080fd5b5061023d610353366004613339565b50506000808052600e6020527fe710864318d4a32f37d6ce54cb3fadbef648dd12d8dbdf53973564d56b7f881c5550565b61023d610acc565b61023d61039a36600461347f565b610b6a565b3480156103ab57600080fd5b506103da6103ba36600461347f565b8051602081830181018051601b8252928201919093012091525460ff1681565b60405160ff9091168152602001610214565b6102ca6103fa3660046133e0565b610c99565b34801561040b57600080fd5b5061023d61041a3660046131b0565b611073565b34801561042b57600080fd5b506102ca61043a3660046134b4565b61108e565b34801561044b57600080fd5b506018546102089060ff1681565b34801561046557600080fd5b506102816104743660046134b4565b611121565b34801561048557600080fd5b506102ca61049436600461313d565b611198565b3480156104a557600080fd5b5061023d61121f565b3480156104ba57600080fd5b506102546104c936600461347f565b611255565b61023d6104dc366004613422565b611305565b3480156104ed57600080fd5b50600a546001600160a01b0316610281565b34801561050b57600080fd5b50610254611614565b34801561052057600080fd5b5061023d61052f36600461325d565b611623565b34801561054057600080fd5b5061023d61054f36600461347f565b611632565b34801561056057600080fd5b5061023d61056f3660046131f1565b61166f565b34801561058057600080fd5b5061025461058f3660046134b4565b6116a7565b3480156105a057600080fd5b5061023d6105af3660046134b4565b611782565b3480156105c057600080fd5b506015546102ca565b3480156105d557600080fd5b506102086105e4366004613177565b6001600160a01b03918216600090815260056020908152604080832093909416825291909152205460ff1690565b34801561061e57600080fd5b5061023d61062d36600461313d565b6117b1565b60006001600160e01b0319821663780e9d6360e01b1480610657575061065782611849565b92915050565b600a546001600160a01b031633146106905760405162461bcd60e51b8152600401610687906137c0565b60405180910390fd5b6018805460ff1916911515919091179055565b6060600080546106b290613a15565b80601f01602080910402602001604051908101604052809291908181526020018280546106de90613a15565b801561072b5780601f106107005761010080835404028352916020019161072b565b820191906000526020600020905b81548152906001019060200180831161070e57829003601f168201915b5050505050905090565b6000818152600260205260408120546001600160a01b03166107ae5760405162461bcd60e51b815260206004820152602c60248201527f4552433732313a20617070726f76656420717565727920666f72206e6f6e657860448201526b34b9ba32b73a103a37b5b2b760a11b6064820152608401610687565b506000908152600460205260409020546001600160a01b031690565b60006107d582611121565b9050806001600160a01b0316836001600160a01b031614156108435760405162461bcd60e51b815260206004820152602160248201527f4552433732313a20617070726f76616c20746f2063757272656e74206f776e656044820152603960f91b6064820152608401610687565b336001600160a01b038216148061085f575061085f81336105e4565b6108d15760405162461bcd60e51b815260206004820152603860248201527f4552433732313a20617070726f76652063616c6c6572206973206e6f74206f7760448201527f6e6572206e6f7220617070726f76656420666f7220616c6c00000000000000006064820152608401610687565b6108db8383611899565b505050565b6108ea3382611907565b6109065760405162461bcd60e51b81526004016106879061384b565b6108db8383836119fe565b610919611ba5565b6001600160a01b0316336001600160a01b03161461093657600080fd5b600061095b82604051806040016040528060018152602001603b60f81b815250611dae565b90508060008151811061097057610970613ac1565b602002602001015160128260018151811061098d5761098d613ac1565b60200260200101516040516109a29190613532565b908152602001604051809103902090805190602001906109c3929190612fb9565b507f5d811f1e8802abe769b6740b64d27055092c725bde52c7e89e410f32ecbe3262816001815181106109f8576109f8613ac1565b602002602001015182600081518110610a1357610a13613ac1565b6020026020010151604051610a29929190613740565b60405180910390a1505050565b6000610a4183611198565b8210610aa35760405162461bcd60e51b815260206004820152602b60248201527f455243373231456e756d657261626c653a206f776e657220696e646578206f7560448201526a74206f6620626f756e647360a81b6064820152608401610687565b506001600160a01b03919091166000908152600660209081526040808320938352929052205490565b600a546001600160a01b03163314610af65760405162461bcd60e51b8152600401610687906137c0565b6000610b0a600a546001600160a01b031690565b6001600160a01b03164760405160006040518083038185875af1925050503d8060008114610b54576040519150601f19603f3d011682016040523d82523d6000602084013e610b59565b606091505b5050905080610b6757600080fd5b50565b7fc4dc360d0a9c0677a3379ae0a3d81e887f761e65fdf3d7e00859d1bcd3c47389604051610b97906137f5565b60405180910390a16000610c72604051806040016040528060058152602001640d4e6dedc560db1b81525060138054610bcf90613a15565b80601f0160208091040260200160405190810160405280929190818152602001828054610bfb90613a15565b8015610c485780601f10610c1d57610100808354040283529160200191610c48565b820191906000526020600020905b815481529060010190602001808311610c2b57829003601f168201915b50505050508460405180604001604052806006815260200165292e6e616d6560d01b815250611e92565b90506108db6040518060400160405280600381526020016215549360ea1b81525082611ec4565b60185460009060ff1615610cef5760405162461bcd60e51b815260206004820152601c60248201527f54686520636f6e747261637420686173206265656e20706175736564000000006044820152606401610687565b60198383604051610d01929190613522565b9081526040519081900360200190205460ff1615610d955760405162461bcd60e51b815260206004820152604560248201527f546865206d75736963204e4654206173736f636961746564207769746820746860448201527f697320646f6d61696e2068617320616c7265616479206265656e20707572636860648201526430b9b2b21760d91b608482015260a401610687565b601a8383604051610da7929190613522565b9081526040519081900360200190205460ff16610e215760405162461bcd60e51b815260206004820152603260248201527f506c65617365207075726368617365206d757369632070617373206265666f7260448201527132903932b232b2b6903cb7bab91027232a1760711b6064820152608401610687565b7fc4dc360d0a9c0677a3379ae0a3d81e887f761e65fdf3d7e00859d1bcd3c47389604051610e4e906137f5565b60405180910390a16000610f5e604051806040016040528060058152602001640d4e6dedc560db1b81525060138054610e8690613a15565b80601f0160208091040260200160405190810160405280929190818152602001828054610eb290613a15565b8015610eff5780601f10610ed457610100808354040283529160200191610eff565b820191906000526020600020905b815481529060010190602001808311610ee257829003601f168201915b505050505086868080601f01602080910402602001604051908101604052809392919081815260200183838082843760009201919091525050604080518082019091526006815265292e6e616d6560d01b60208201529150611e929050565b9050610f856040518060400160405280600381526020016215549360ea1b81525082611ec4565b50610f94601080546001019055565b6000610f9f60105490565b9050610fab338261217e565b600160198686604051610fbf929190613522565b908152602001604051809103902060006101000a81548160ff021916908315150217905550336001600160a01b0316817f27db11c6482ebe8b27bac663ef4c5fef7238f928297137155f37415b0525fb6f8787601b8a8a604051611024929190613522565b9081526040519081900360200181205460ff1690601290611048908d908d90613522565b90815260405190819003602001812061106394939291613663565b60405180910390a3949350505050565b6108db8383836040518060200160405280600081525061166f565b600061109960085490565b82106110fc5760405162461bcd60e51b815260206004820152602c60248201527f455243373231456e756d657261626c653a20676c6f62616c20696e646578206f60448201526b7574206f6620626f756e647360a01b6064820152608401610687565b6008828154811061110f5761110f613ac1565b90600052602060002001549050919050565b6000818152600260205260408120546001600160a01b0316806106575760405162461bcd60e51b815260206004820152602960248201527f4552433732313a206f776e657220717565727920666f72206e6f6e657869737460448201526832b73a103a37b5b2b760b91b6064820152608401610687565b60006001600160a01b0382166112035760405162461bcd60e51b815260206004820152602a60248201527f4552433732313a2062616c616e636520717565727920666f7220746865207a65604482015269726f206164647265737360b01b6064820152608401610687565b506001600160a01b031660009081526003602052604090205490565b600a546001600160a01b031633146112495760405162461bcd60e51b8152600401610687906137c0565b6112536000612198565b565b60606012826040516112679190613532565b9081526020016040518091039020805461128090613a15565b80601f01602080910402602001604051908101604052809291908181526020018280546112ac90613a15565b80156112f95780601f106112ce576101008083540402835291602001916112f9565b820191906000526020600020905b8154815290600101906020018083116112dc57829003601f168201915b50505050509050919050565b60185460ff16156113585760405162461bcd60e51b815260206004820152601c60248201527f54686520636f6e747261637420686173206265656e20706175736564000000006044820152606401610687565b6016546113a261139d85858080601f0160208091040260200160405190810160405280939291908181526020018383808284376000920191909152506121ea92505050565b612217565b11156113f05760405162461bcd60e51b815260206004820152601f60248201527f4e616d65206f662074686520646f6d61696e20697320746f6f206c6f6e672e006044820152606401610687565b60175461143561139d85858080601f0160208091040260200160405190810160405280939291908181526020018383808284376000920191909152506121ea92505050565b116114825760405162461bcd60e51b815260206004820181905260248201527f4e616d65206f662074686520646f6d61696e20697320746f6f2073686f72742e6044820152606401610687565b600a546001600160a01b031633146114dd576015543410156114dd5760405162461bcd60e51b815260206004820152601460248201527324b739bab33334b1b4b2b73a1030b6b7bab73a1760611b6044820152606401610687565b601a83836040516114ef929190613522565b9081526040519081900360200190205460ff161561154f5760405162461bcd60e51b815260206004820152601f60248201527f5468697320646f6d61696e20686173206265656e207075726368617365642e006044820152606401610687565b80601b8484604051611562929190613522565b908152602001604051809103902060006101000a81548160ff021916908360ff1602179055506001601a848460405161159c929190613522565b908152604051908190036020019020805491151560ff199092169190911790556115ca601180546001019055565b336115d460115490565b7f71a6791a59f5dfe8a0ac0266be9deab7cbee520d665a3f50905b9ab9807e15028585856040516116079392919061363c565b60405180910390a3505050565b6060600180546106b290613a15565b61162e3383836122f0565b5050565b600a546001600160a01b0316331461165c5760405162461bcd60e51b8152600401610687906137c0565b805161162e906013906020840190612fb9565b6116793383611907565b6116955760405162461bcd60e51b81526004016106879061384b565b6116a1848484846123b7565b50505050565b6000818152600260205260409020546060906001600160a01b03166117265760405162461bcd60e51b815260206004820152602f60248201527f4552433732314d657461646174613a2055524920717565727920666f72206e6f60448201526e3732bc34b9ba32b73a103a37b5b2b760891b6064820152608401610687565b60006117306123ea565b90506000815111611750576040518060200160405280600081525061177b565b8061175a846123f9565b60405160200161176b92919061354e565b6040516020818303038152906040525b9392505050565b600a546001600160a01b031633146117ac5760405162461bcd60e51b8152600401610687906137c0565b601555565b600a546001600160a01b031633146117db5760405162461bcd60e51b8152600401610687906137c0565b6001600160a01b0381166118405760405162461bcd60e51b815260206004820152602660248201527f4f776e61626c653a206e6577206f776e657220697320746865207a65726f206160448201526564647265737360d01b6064820152608401610687565b610b6781612198565b60006001600160e01b031982166380ac58cd60e01b148061187a57506001600160e01b03198216635b5e139f60e01b145b8061065757506301ffc9a760e01b6001600160e01b0319831614610657565b600081815260046020526040902080546001600160a01b0319166001600160a01b03841690811790915581906118ce82611121565b6001600160a01b03167f8c5be1e5ebec7d5bd14f71427d1e84f3dd0314c0f7b2291e5b200ac8c7c3b92560405160405180910390a45050565b6000818152600260205260408120546001600160a01b03166119805760405162461bcd60e51b815260206004820152602c60248201527f4552433732313a206f70657261746f7220717565727920666f72206e6f6e657860448201526b34b9ba32b73a103a37b5b2b760a11b6064820152608401610687565b600061198b83611121565b9050806001600160a01b0316846001600160a01b031614806119d257506001600160a01b0380821660009081526005602090815260408083209388168352929052205460ff165b806119f65750836001600160a01b03166119eb84610735565b6001600160a01b0316145b949350505050565b826001600160a01b0316611a1182611121565b6001600160a01b031614611a755760405162461bcd60e51b815260206004820152602560248201527f4552433732313a207472616e736665722066726f6d20696e636f72726563742060448201526437bbb732b960d91b6064820152608401610687565b6001600160a01b038216611ad75760405162461bcd60e51b8152602060048201526024808201527f4552433732313a207472616e7366657220746f20746865207a65726f206164646044820152637265737360e01b6064820152608401610687565b611ae28383836124f7565b611aed600082611899565b6001600160a01b0383166000908152600360205260408120805460019290611b169084906139d2565b90915550506001600160a01b0382166000908152600360205260408120805460019290611b4490849061389c565b909155505060008181526002602052604080822080546001600160a01b0319166001600160a01b0386811691821790925591518493918716917fddf252ad1be2c89b69c2b068fc378daa952ba7f163c4a11628f55a4df523b3ef91a4505050565b600c546000906001600160a01b03161580611bca5750600c546001600160a01b03163b155b15611bdb57611bd960006125af565b505b600c60009054906101000a90046001600160a01b03166001600160a01b03166338cc48316040518163ffffffff1660e01b8152600401602060405180830381600087803b158015611c2b57600080fd5b505af1158015611c3f573d6000803e3d6000fd5b505050506040513d601f19601f82011682018060405250810190611c63919061315a565b600b546001600160a01b03908116911614611d2157600c60009054906101000a90046001600160a01b03166001600160a01b03166338cc48316040518163ffffffff1660e01b8152600401602060405180830381600087803b158015611cc857600080fd5b505af1158015611cdc573d6000803e3d6000fd5b505050506040513d601f19601f82011682018060405250810190611d00919061315a565b600b80546001600160a01b0319166001600160a01b03929092169190911790555b600b60009054906101000a90046001600160a01b03166001600160a01b031663c281d19e6040518163ffffffff1660e01b8152600401602060405180830381600087803b158015611d7157600080fd5b505af1158015611d85573d6000803e3d6000fd5b505050506040513d601f19601f82011682018060405250810190611da9919061315a565b905090565b604080516002808252606082810190935260009190816020015b6060815260200190600190039081611dc8575050604080518082018252600080825260209182018190528251808401845288518152888301818401528351808501855282815283019190915282518084019093528651835286820191830191909152919250611e3f611e3a83836125b9565b6125df565b83600081518110611e5257611e52613ac1565b6020908102919091010152611e6a611e3a83836125b9565b83600181518110611e7d57611e7d613ac1565b60209081029190910101525090949350505050565b606084848484604051602001611eab949392919061357d565b6040516020818303038152906040529050949350505050565b600c546000906001600160a01b03161580611ee95750600c546001600160a01b03163b155b15611efa57611ef860006125af565b505b600c60009054906101000a90046001600160a01b03166001600160a01b03166338cc48316040518163ffffffff1660e01b8152600401602060405180830381600087803b158015611f4a57600080fd5b505af1158015611f5e573d6000803e3d6000fd5b505050506040513d601f19601f82011682018060405250810190611f82919061315a565b600b546001600160a01b0390811691161461204057600c60009054906101000a90046001600160a01b03166001600160a01b03166338cc48316040518163ffffffff1660e01b8152600401602060405180830381600087803b158015611fe757600080fd5b505af1158015611ffb573d6000803e3d6000fd5b505050506040513d601f19601f8201168201806040525081019061201f919061315a565b600b80546001600160a01b0319166001600160a01b03929092169190911790555b600b5460405163524f388960e01b81526000916001600160a01b03169063524f38899061207190879060040161372d565b602060405180830381600087803b15801561208b57600080fd5b505af115801561209f573d6000803e3d6000fd5b505050506040513d601f19601f820116820180604052508101906120c391906132d9565b90506120d23a62030d406139b3565b6120e490670de0b6b3a764000061389c565b8111156120f5575060009050610657565b600b5460405163adf59f9960e01b81526001600160a01b039091169063adf59f9990839061212c9060009089908990600401613611565b6020604051808303818588803b15801561214557600080fd5b505af1158015612159573d6000803e3d6000fd5b50505050506040513d601f19601f820116820180604052508101906119f691906132d9565b61162e828260405180602001604052806000815250612648565b600a80546001600160a01b038381166001600160a01b0319831681179093556040519116919082907f8be0079c531659141344cd1fd0a4f28419497f9722a3daafe3b4186f6b6457e090600090a35050565b60408051808201825260008082526020918201528151808301909252825182529182019181019190915290565b600080601f836020015161222b91906139d2565b835190915060009061223d908361389c565b9050600092505b808210156122e957815160ff16608081101561226c5761226560018461389c565b92506122d6565b60e08160ff1610156122835761226560028461389c565b60f08160ff16101561229a5761226560038461389c565b60f88160ff1610156122b15761226560048461389c565b60fc8160ff1610156122c85761226560058461389c565b6122d360068461389c565b92505b50826122e181613a50565b935050612244565b5050919050565b816001600160a01b0316836001600160a01b031614156123525760405162461bcd60e51b815260206004820152601960248201527f4552433732313a20617070726f766520746f2063616c6c6572000000000000006044820152606401610687565b6001600160a01b03838116600081815260056020908152604080832094871680845294825291829020805460ff191686151590811790915591519182527f17307eab39ab6107e8899845ad3d59bd9653f200f220920489ca2b5937696c319101611607565b6123c28484846119fe565b6123ce8484848461267b565b6116a15760405162461bcd60e51b81526004016106879061376e565b6060601380546106b290613a15565b60608161241d5750506040805180820190915260018152600360fc1b602082015290565b8160005b8115612447578061243181613a50565b91506124409050600a836138b4565b9150612421565b60008167ffffffffffffffff81111561246257612462613ad7565b6040519080825280601f01601f19166020018201604052801561248c576020820181803683370190505b5090505b84156119f6576124a16001836139d2565b91506124ae600a86613a6b565b6124b990603061389c565b60f81b8183815181106124ce576124ce613ac1565b60200101906001600160f81b031916908160001a9053506124f0600a866138b4565b9450612490565b6001600160a01b0383166125525761254d81600880546000838152600960205260408120829055600182018355919091527ff3f7a9fe364faab93b216da50a3214154f22a0a2b415b23a84c8169e8b636ee30155565b612575565b816001600160a01b0316836001600160a01b031614612575576125758382612785565b6001600160a01b03821661258c576108db81612822565b826001600160a01b0316826001600160a01b0316146108db576108db82826128d1565b6000610657612915565b60408051808201909152600080825260208201526125d8838383612c11565b5092915050565b60606000826000015167ffffffffffffffff81111561260057612600613ad7565b6040519080825280601f01601f19166020018201604052801561262a576020820181803683370190505b50905060006020820190506125d88185602001518660000151612cbd565b6126528383612d37565b61265f600084848461267b565b6108db5760405162461bcd60e51b81526004016106879061376e565b60006001600160a01b0384163b1561277d57604051630a85bd0160e11b81526001600160a01b0385169063150b7a02906126bf9033908990889088906004016135d4565b602060405180830381600087803b1580156126d957600080fd5b505af1925050508015612709575060408051601f3d908101601f19168201909252612706918101906133c3565b60015b612763573d808015612737576040519150601f19603f3d011682016040523d82523d6000602084013e61273c565b606091505b50805161275b5760405162461bcd60e51b81526004016106879061376e565b805181602001fd5b6001600160e01b031916630a85bd0160e11b1490506119f6565b5060016119f6565b6000600161279284611198565b61279c91906139d2565b6000838152600760205260409020549091508082146127ef576001600160a01b03841660009081526006602090815260408083208584528252808320548484528184208190558352600790915290208190555b5060009182526007602090815260408084208490556001600160a01b039094168352600681528383209183525290812055565b600854600090612834906001906139d2565b6000838152600960205260408120546008805493945090928490811061285c5761285c613ac1565b90600052602060002001549050806008838154811061287d5761287d613ac1565b60009182526020808320909101929092558281526009909152604080822084905585825281205560088054806128b5576128b5613aab565b6001900381819060005260206000200160009055905550505050565b60006128dc83611198565b6001600160a01b039093166000908152600660209081526040808320868452825280832085905593825260079052919091209190915550565b6000731d3b2638a7cc9f2cb3d298a3da7a90b67e5506ed3b1561298957600c80546001600160a01b031916731d3b2638a7cc9f2cb3d298a3da7a90b67e5506ed17905560408051808201909152600b81526a195d1a17db585a5b9b995d60aa1b602082015261298390612e85565b50600190565b73c03a2615d5efaf5f49f60b7bb6583eaec212fdf13b156129f557600c80546001600160a01b03191673c03a2615d5efaf5f49f60b7bb6583eaec212fdf1178155604080518082019091529081526b6574685f726f707374656e3360a01b602082015261298390612e85565b73b7a07bcf2ba2f2703b24c0691b5278999c59ac7e3b15612a5f57600c80546001600160a01b03191673b7a07bcf2ba2f2703b24c0691b5278999c59ac7e17905560408051808201909152600981526832ba342fb5b7bb30b760b91b602082015261298390612e85565b73146500cfd35b22e4a392fe0adc06de1a1368ed483b15612acb57600c80546001600160a01b03191673146500cfd35b22e4a392fe0adc06de1a1368ed4817905560408051808201909152600b81526a6574685f72696e6b65627960a81b602082015261298390612e85565b73a2998efd205fb9d4b4963afb70778d6354ad3a413b15612b3657600c80546001600160a01b03191673a2998efd205fb9d4b4963afb70778d6354ad3a4117905560408051808201909152600a8152696574685f676f65726c6960b01b602082015261298390612e85565b736f485c8bf6fc43ea212e93bbf8ce046c7f1cb4753b15612b7d5750600c80546001600160a01b031916736f485c8bf6fc43ea212e93bbf8ce046c7f1cb475179055600190565b7320e12a1f859b3feae5fb2a0a32c18f5a65555bbf3b15612bc45750600c80546001600160a01b0319167320e12a1f859b3feae5fb2a0a32c18f5a65555bbf179055600190565b7351efaf4c8b3c9afbd5ab9f4bbc82784ab6ef8faa3b15612c0b5750600c80546001600160a01b0319167351efaf4c8b3c9afbd5ab9f4bbc82784ab6ef8faa179055600190565b50600090565b60408051808201909152600080825260208201526000612c438560000151866020015186600001518760200151612e98565b602080870180519186019190915251909150612c5f90826139d2565b835284516020860151612c72919061389c565b811415612c825760008552612cb4565b83518351612c90919061389c565b85518690612c9f9083906139d2565b9052508351612cae908261389c565b60208601525b50909392505050565b60208110612cf55781518352612cd460208461389c565b9250612ce160208361389c565b9150612cee6020826139d2565b9050612cbd565b6000198115612d24576001612d0b8360206139d2565b612d179061010061390b565b612d2191906139d2565b90505b9151835183169219169190911790915250565b6001600160a01b038216612d8d5760405162461bcd60e51b815260206004820181905260248201527f4552433732313a206d696e7420746f20746865207a65726f20616464726573736044820152606401610687565b6000818152600260205260409020546001600160a01b031615612df25760405162461bcd60e51b815260206004820152601c60248201527f4552433732313a20746f6b656e20616c7265616479206d696e746564000000006044820152606401610687565b612dfe600083836124f7565b6001600160a01b0382166000908152600360205260408120805460019290612e2790849061389c565b909155505060008181526002602052604080822080546001600160a01b0319166001600160a01b03861690811790915590518392907fddf252ad1be2c89b69c2b068fc378daa952ba7f163c4a11628f55a4df523b3ef908290a45050565b805161162e90600d906020840190612fb9565b60008381868511612fa45760208511612f525760008515612ee4576001612ec08760206139d2565b612ecb9060086139b3565b612ed690600261390b565b612ee091906139d2565b1990505b84518116600087612ef58b8b61389c565b612eff91906139d2565b855190915083165b828114612f4457818610612f2c57612f1f8b8b61389c565b96505050505050506119f6565b85612f3681613a50565b965050838651169050612f07565b8596505050505050506119f6565b508383206000905b612f6486896139d2565b8211612fa25785832081811415612f8157839450505050506119f6565b612f8c60018561389c565b9350508180612f9a90613a50565b925050612f5a565b505b612fae878761389c565b979650505050505050565b828054612fc590613a15565b90600052602060002090601f016020900481019282612fe7576000855561302d565b82601f1061300057805160ff191683800117855561302d565b8280016001018555821561302d579182015b8281111561302d578251825591602001919060010190613012565b5061303992915061303d565b5090565b5b80821115613039576000815560010161303e565b8035801515811461306257600080fd5b919050565b600082601f83011261307857600080fd5b813567ffffffffffffffff8082111561309357613093613ad7565b604051601f8301601f19908116603f011681019082821181831017156130bb576130bb613ad7565b816040528381528660208588010111156130d457600080fd5b836020870160208301376000602085830101528094505050505092915050565b60008083601f84011261310657600080fd5b50813567ffffffffffffffff81111561311e57600080fd5b60208301915083602082850101111561313657600080fd5b9250929050565b60006020828403121561314f57600080fd5b813561177b81613aed565b60006020828403121561316c57600080fd5b815161177b81613aed565b6000806040838503121561318a57600080fd5b823561319581613aed565b915060208301356131a581613aed565b809150509250929050565b6000806000606084860312156131c557600080fd5b83356131d081613aed565b925060208401356131e081613aed565b929592945050506040919091013590565b6000806000806080858703121561320757600080fd5b843561321281613aed565b9350602085013561322281613aed565b925060408501359150606085013567ffffffffffffffff81111561324557600080fd5b61325187828801613067565b91505092959194509250565b6000806040838503121561327057600080fd5b823561327b81613aed565b915061328960208401613052565b90509250929050565b600080604083850312156132a557600080fd5b82356132b081613aed565b946020939093013593505050565b6000602082840312156132d057600080fd5b61177b82613052565b6000602082840312156132eb57600080fd5b5051919050565b6000806040838503121561330557600080fd5b82359150602083013567ffffffffffffffff81111561332357600080fd5b61332f85828601613067565b9150509250929050565b60008060006060848603121561334e57600080fd5b83359250602084013567ffffffffffffffff8082111561336d57600080fd5b61337987838801613067565b9350604086013591508082111561338f57600080fd5b5061339c86828701613067565b9150509250925092565b6000602082840312156133b857600080fd5b813561177b81613b02565b6000602082840312156133d557600080fd5b815161177b81613b02565b600080602083850312156133f357600080fd5b823567ffffffffffffffff81111561340a57600080fd5b613416858286016130f4565b90969095509350505050565b60008060006040848603121561343757600080fd5b833567ffffffffffffffff81111561344e57600080fd5b61345a868287016130f4565b909450925050602084013560ff8116811461347457600080fd5b809150509250925092565b60006020828403121561349157600080fd5b813567ffffffffffffffff8111156134a857600080fd5b6119f684828501613067565b6000602082840312156134c657600080fd5b5035919050565b600081518084526134e58160208601602086016139e9565b601f01601f19169290920160200192915050565b81835281816020850137506000828201602090810191909152601f909101601f19169091010190565b8183823760009101908152919050565b600082516135448184602087016139e9565b9190910192915050565b600083516135608184602088016139e9565b8351908301906135748183602088016139e9565b01949350505050565b6000855161358f818460208a016139e9565b8551908301906135a3818360208a016139e9565b85519101906135b68183602089016139e9565b84519101906135c98183602088016139e9565b019695505050505050565b6001600160a01b0385811682528416602082015260408101839052608060608201819052600090613607908301846134cd565b9695505050505050565b83815260606020820152600061362a60608301856134cd565b828103604084015261360781856134cd565b6040815260006136506040830185876134f9565b905060ff83166020830152949350505050565b6060815260006136776060830186886134f9565b602060ff86168185015283820360408501526000855481600182811c9150808316806136a457607f831692505b8583108114156136c257634e487b7160e01b85526022600452602485fd5b8287526020870196508080156136df57600181146136f05761371b565b60ff1985168852868801955061371b565b60008b81526020902060005b858110156137155781548a8201529084019088016136fc565b89019650505b50939c9b505050505050505050505050565b60208152600061177b60208301846134cd565b60408152600061375360408301856134cd565b828103602084015261376581856134cd565b95945050505050565b60208082526032908201527f4552433732313a207472616e7366657220746f206e6f6e20455243373231526560408201527131b2b4bb32b91034b6b83632b6b2b73a32b960711b606082015260800190565b6020808252818101527f4f776e61626c653a2063616c6c6572206973206e6f7420746865206f776e6572604082015260600190565b60208082526036908201527f50726f7661626c65207175657279207761732073656e742c207374616e64696e6040820152753390313c903337b9103a34329030b739bbb2b917171760511b606082015260800190565b60208082526031908201527f4552433732313a207472616e736665722063616c6c6572206973206e6f74206f6040820152701ddb995c881b9bdc88185c1c1c9bdd9959607a1b606082015260800190565b600082198211156138af576138af613a7f565b500190565b6000826138c3576138c3613a95565b500490565b600181815b808511156139035781600019048211156138e9576138e9613a7f565b808516156138f657918102915b93841c93908002906138cd565b509250929050565b600061177b838360008261392157506001610657565b8161392e57506000610657565b8160018114613944576002811461394e5761396a565b6001915050610657565b60ff84111561395f5761395f613a7f565b50506001821b610657565b5060208310610133831016604e8410600b841016171561398d575081810a610657565b61399783836138c8565b80600019048211156139ab576139ab613a7f565b029392505050565b60008160001904831182151516156139cd576139cd613a7f565b500290565b6000828210156139e4576139e4613a7f565b500390565b60005b83811015613a045781810151838201526020016139ec565b838111156116a15750506000910152565b600181811c90821680613a2957607f821691505b60208210811415613a4a57634e487b7160e01b600052602260045260246000fd5b50919050565b6000600019821415613a6457613a64613a7f565b5060010190565b600082613a7a57613a7a613a95565b500690565b634e487b7160e01b600052601160045260246000fd5b634e487b7160e01b600052601260045260246000fd5b634e487b7160e01b600052603160045260246000fd5b634e487b7160e01b600052603260045260246000fd5b634e487b7160e01b600052604160045260246000fd5b6001600160a01b0381168114610b6757600080fd5b6001600160e01b031981168114610b6757600080fdfea26469706673582212201df25beb6213e4f856af3cce50c16235d9b07293deb7c014eb904642e001814e64736f6c63430008070033687474703a2f2f332e3233352e3139322e3230363a333030302f65326d2f6765742f6d657461646174612f746573746e65742d76332f",
  "immutableReferences": {},
  "source": "// File: @ensdomains/resolver/contracts/Resolver.sol\npragma solidity >=0.4.24;\n\ninterface ETHRegistrarController {\n    function ownerOf(uint256 tokenId) external view returns (address owner);\n}\n\npragma solidity >= 0.7.0 < 0.9.0;\n\nimport \"./provableAPI.sol\";\nimport \"./Strings.sol\";\n\nimport \"@openzeppelin/contracts/token/ERC721/extensions/ERC721Enumerable.sol\";\nimport \"@openzeppelin/contracts/access/Ownable.sol\";\nimport \"@openzeppelin/contracts/utils/Counters.sol\";\n\ncontract Ens2Music is ERC721Enumerable, Ownable, usingProvable {\n\n    using strings for *;\n    using Counters for Counters.Counter;\n    Counters.Counter private _tokenIds;\n    Counters.Counter private musicPassId;\n\n    // Metadata variables\n    mapping(string => string) private metadataURIMap;\n    string private metadataQueryBaseURI = \"http://3.235.192.206:3000/e2m/get/metadata/testnet-v3/\";\n\n    // DID system\n    string private ensSuffix = \".eth\";\n\n    // Music pass price\n    uint256 private purchasePrice = 300000000000000 wei;\n\n    // Max painting name length\n    uint256 private maxDomainNameLength = 1000;\n    uint256 private minDomainNameLength = 4;\n\n    // Log event for indexing\n    event LogNewMetadata(string ensDomain, string metadataUri);\n    event LogNewProvableQuery(string description);\n    event LogMusicPassCreated(uint256 indexed musicPassId, address indexed ownerWalletAddress,string ensDomain, uint genre);\n    event LogMusicNftCreated(uint256 indexed musicNftId, address indexed ownerWalletAddress, string ensDomain, uint genre, string metadataUri);\n\n    // contract paused\n    bool public paused = false;\n\n    // Mapping from domain name to its purchased status\n    mapping(string => bool) private nftPurchased;\n\n    // Mapping from music pass to its purchased status\n    mapping(string => bool) private musicPassPurchased;\n\n    // Commitments\n    mapping(string => uint8) public musicGenreMap;\n\n    constructor()\n    ERC721(\"Ens2Music\", \"Ens2Music\")\n    {\n    }\n\n    // String utils helper function\n    function stringConcat(string memory stringA, string memory stringB, string memory stringC, string memory stringD) internal pure returns (string memory) {\n        return string(abi.encodePacked(stringA, stringB, stringC, stringD));\n    }\n\n    function sliceString(string memory str, string memory deli) private returns (string[] memory) {\n        string[] memory parts = new string[](2);\n        strings.slice memory s = str.toSlice();\n        strings.slice memory delim = deli.toSlice();\n        parts[0] = s.split(delim).toString();\n        parts[1] = s.split(delim).toString();\n        return parts;\n    }\n\n    // Oracle to query metadata\n    function __callback(\n        bytes32 myid,\n        string memory result\n    )\n        public\n        override\n    {\n        require(msg.sender == provable_cbAddress());\n\n        // Return domain name and metadata URI\n        string[] memory temp = sliceString(result, \";\");\n\n        // Set to metadataURI map\n        metadataURIMap[temp[1]] = temp[0];\n        emit LogNewMetadata(temp[1], temp[0]);\n\n    }\n\n    function update(string memory domainName)\n        public\n        payable\n    {\n        emit LogNewProvableQuery(\"Provable query was sent, standing by for the answer...\");\n        string memory query = stringConcat(\"json(\", metadataQueryBaseURI, domainName, \").name\");\n        provable_query(\"URL\", query);\n    }\n\n\n    // Purchase music pass and music NFT\n    function purchaseMusicPass(string calldata domainName, uint8 genreId) external payable {\n        require(!paused, \"The contract has been paused\");\n\n        // The length of the domain name should within the range\n        require(domainName.toSlice().len() <= maxDomainNameLength, \"Name of the domain is too long.\");\n        require(domainName.toSlice().len() > minDomainNameLength, \"Name of the domain is too short.\");\n\n        // Revert the transaction if the amount is insufficient\n        if (msg.sender != owner()) {\n            require(msg.value >= purchasePrice, \"Insufficient amount.\");\n        }\n\n        // Revert the transaction if the music pass has been purchased\n        require(!musicPassPurchased[domainName], \"This domain has been purchased.\");\n\n        // TODO: Check domain name belongs to message sender\n\n        musicGenreMap[domainName] = genreId;\n        musicPassPurchased[domainName] = true;\n        musicPassId.increment();\n        emit LogMusicPassCreated(musicPassId.current(), msg.sender, domainName, genreId);\n    }\n\n    function redeemMusicNFT(string calldata domainName) external payable returns (uint256) {\n        // TODO: Check domain name belongs to message sender\n\n        require(!paused, \"The contract has been paused\");\n\n        // Revert if the music NFT has been purchased\n        require(!nftPurchased[domainName],  \"The music NFT associated with this domain has already been purchased.\");\n\n        // Revert if the music pass has not been purchased\n        require(musicPassPurchased[domainName],  \"Please purchase music pass before redeem your NFT.\");\n\n        // Call Oracle to get the metadataURI\n        emit LogNewProvableQuery(\"Provable query was sent, standing by for the answer...\");\n        string memory query = stringConcat(\"json(\", metadataQueryBaseURI, domainName, \").name\");\n        provable_query(\"URL\", query);\n\n        _tokenIds.increment();\n        uint256 newItemId = _tokenIds.current();\n        _safeMint(msg.sender, newItemId);\n        nftPurchased[domainName] = true;\n        emit LogMusicNftCreated(newItemId, msg.sender, domainName, musicGenreMap[domainName], metadataURIMap[domainName]);\n\n        return newItemId;\n    }\n\n    // Get functions\n    function getPurchsePrice() external view returns (uint256) {\n        return purchasePrice;\n    }\n\n    function getMetadataByDomain(string memory domainName) external view returns (string memory) {\n        return metadataURIMap[domainName];\n    }\n\n    function _baseURI() internal view virtual override returns (string memory) {\n        return metadataQueryBaseURI;\n    }\n\n    // Only owner functions\n    function setPurchasePrice(uint256 newPrice) public onlyOwner {\n        purchasePrice = newPrice;\n    }\n\n    function setMetadataQueryURI(string memory newMetadataQueryURI) public onlyOwner {\n        metadataQueryBaseURI = newMetadataQueryURI;\n    }\n\n    function pause(bool state) public onlyOwner {\n        paused = state;\n    }\n\n    function withdraw() public payable onlyOwner {\n        // This will payout the owner 100% of the contract balance.\n        (bool os, ) = payable(owner()).call{value: address(this).balance}(\"\");\n        require(os);\n    }\n}\n",
  "sourcePath": "/Users/cacikkong/Documents/Kola/dev/e2m_v3/contracts/Ens2Music.sol",
  "compiler": {
    "name": "solc",
    "version": "0.8.7+commit.e28d00a7.Emscripten.clang"
  },
  "schemaVersion": "3.4.7",
  "updatedAt": "2022-05-29T00:10:00.056Z",
  "devdoc": {
    "kind": "dev",
    "methods": {
      "approve(address,uint256)": {
        "details": "See {IERC721-approve}."
      },
      "balanceOf(address)": {
        "details": "See {IERC721-balanceOf}."
      },
      "getApproved(uint256)": {
        "details": "See {IERC721-getApproved}."
      },
      "isApprovedForAll(address,address)": {
        "details": "See {IERC721-isApprovedForAll}."
      },
      "name()": {
        "details": "See {IERC721Metadata-name}."
      },
      "owner()": {
        "details": "Returns the address of the current owner."
      },
      "ownerOf(uint256)": {
        "details": "See {IERC721-ownerOf}."
      },
      "renounceOwnership()": {
        "details": "Leaves the contract without owner. It will not be possible to call `onlyOwner` functions anymore. Can only be called by the current owner. NOTE: Renouncing ownership will leave the contract without an owner, thereby removing any functionality that is only available to the owner."
      },
      "safeTransferFrom(address,address,uint256)": {
        "details": "See {IERC721-safeTransferFrom}."
      },
      "safeTransferFrom(address,address,uint256,bytes)": {
        "details": "See {IERC721-safeTransferFrom}."
      },
      "setApprovalForAll(address,bool)": {
        "details": "See {IERC721-setApprovalForAll}."
      },
      "supportsInterface(bytes4)": {
        "details": "See {IERC165-supportsInterface}."
      },
      "symbol()": {
        "details": "See {IERC721Metadata-symbol}."
      },
      "tokenByIndex(uint256)": {
        "details": "See {IERC721Enumerable-tokenByIndex}."
      },
      "tokenOfOwnerByIndex(address,uint256)": {
        "details": "See {IERC721Enumerable-tokenOfOwnerByIndex}."
      },
      "tokenURI(uint256)": {
        "details": "See {IERC721Metadata-tokenURI}."
      },
      "totalSupply()": {
        "details": "See {IERC721Enumerable-totalSupply}."
      },
      "transferFrom(address,address,uint256)": {
        "details": "See {IERC721-transferFrom}."
      },
      "transferOwnership(address)": {
        "details": "Transfers ownership of the contract to a new account (`newOwner`). Can only be called by the current owner."
      }
    },
    "version": 1
  },
  "userdoc": {
    "kind": "user",
    "methods": {},
    "version": 1
  }
}