{
  "contractName": "usingProvable",
  "abi": [
    {
      "inputs": [
        {
          "internalType": "bytes32",
          "name": "_myid",
          "type": "bytes32"
        },
        {
          "internalType": "string",
          "name": "_result",
          "type": "string"
        }
      ],
      "name": "__callback",
      "outputs": [],
      "stateMutability": "nonpayable",
      "type": "function"
    },
    {
      "inputs": [
        {
          "internalType": "bytes32",
          "name": "_myid",
          "type": "bytes32"
        },
        {
          "internalType": "string",
          "name": "_result",
          "type": "string"
        },
        {
          "internalType": "bytes",
          "name": "_proof",
          "type": "bytes"
        }
      ],
      "name": "__callback",
      "outputs": [],
      "stateMutability": "nonpayable",
      "type": "function"
    }
  ],
  "bytecode": "0x608060405234801561001057600080fd5b50610279806100206000396000f3fe608060405234801561001057600080fd5b50600436106100365760003560e01c806327dc297e1461003b57806338bbfa5014610089575b600080fd5b610087610049366004610165565b6040805160008082526020918201909252818052600390527f3617319a054d772f909f7c479a2cebe5066e836a939412e32403c99029b92eff555050565b005b6100876100973660046101ac565b5050600080805260036020527f3617319a054d772f909f7c479a2cebe5066e836a939412e32403c99029b92eff5550565b600067ffffffffffffffff808411156100e3576100e361022d565b604051601f8501601f19908116603f0116810190828211818310171561010b5761010b61022d565b8160405280935085815286868601111561012457600080fd5b858560208301376000602087830101525050509392505050565b600082601f83011261014f57600080fd5b61015e838335602085016100c8565b9392505050565b6000806040838503121561017857600080fd5b82359150602083013567ffffffffffffffff81111561019657600080fd5b6101a28582860161013e565b9150509250929050565b6000806000606084860312156101c157600080fd5b83359250602084013567ffffffffffffffff808211156101e057600080fd5b6101ec8783880161013e565b9350604086013591508082111561020257600080fd5b508401601f8101861361021457600080fd5b610223868235602084016100c8565b9150509250925092565b634e487b7160e01b600052604160045260246000fdfea264697066735822122067afb1c8ac887160f0db6bffd254c90d7fa41e4d4340fdb29078cd91a479630264736f6c63430008070033",
  "immutableReferences": {},
  "source": "// <provableAPI>\r\n/*\r\nCopyright (c) 2015-2016 Oraclize SRL\r\nCopyright (c) 2016-2019 Oraclize LTD\r\nCopyright (c) 2019-2020 Provable Things Limited\r\nPermission is hereby granted, free of charge, to any person obtaining a copy\r\nof this software and associated documentation files (the \"Software\"), to deal\r\nin the Software without restriction, including without limitation the rights\r\nto use, copy, modify, merge, publish, distribute, sublicense, and/or sell\r\ncopies of the Software, and to permit persons to whom the Software is\r\nfurnished to do so, subject to the following conditions:\r\nThe above copyright notice and this permission notice shall be included in\r\nall copies or substantial portions of the Software.\r\nTHE SOFTWARE IS PROVIDED \"AS IS\", WITHOUT WARRANTY OF ANY KIND, EXPRESS OR\r\nIMPLIED, INCLUDING BUT NOT LIMITED TO THE WARRANTIES OF MERCHANTABILITY,\r\nFITNESS FOR A PARTICULAR PURPOSE AND NONINFRINGEMENT.  IN NO EVENT SHALL THE\r\nAUTHORS OR COPYRIGHT HOLDERS BE LIABLE FOR ANY CLAIM, DAMAGES OR OTHER\r\nLIABILITY, WHETHER IN AN ACTION OF CONTRACT, TORT OR OTHERWISE, ARISING FROM,\r\nOUT OF OR IN CONNECTION WITH THE SOFTWARE OR THE USE OR OTHER DEALINGS IN\r\nTHE SOFTWARE.\r\n*/\r\npragma solidity > 0.6.1; // Incompatible compiler version - please select a compiler within the stated pragma range, or use a different version of the provableAPI!\r\n\r\n// Dummy contract only used to emit to end-user they are using wrong solc\r\nabstract contract solcChecker {\r\n    /* INCOMPATIBLE SOLC: import the following instead: \"github.com/oraclize/ethereum-api/oraclizeAPI_0.4.sol\" */ function f(bytes calldata x) virtual external;\r\n}\r\n\r\ninterface ProvableI {\r\n\r\n    function cbAddress() external returns (address _cbAddress);\r\n    function setProofType(bytes1 _proofType) external;\r\n    function setCustomGasPrice(uint _gasPrice) external;\r\n    function getPrice(string calldata _datasource) external returns (uint _dsprice);\r\n    function randomDS_getSessionPubKeyHash() external view returns (bytes32 _sessionKeyHash);\r\n    function getPrice(string calldata _datasource, uint _gasLimit)  external returns (uint _dsprice);\r\n    function queryN(uint _timestamp, string calldata _datasource, bytes calldata _argN) external payable returns (bytes32 _id);\r\n    function query(uint _timestamp, string calldata _datasource, string calldata _arg) external payable returns (bytes32 _id);\r\n    function query2(uint _timestamp, string calldata _datasource, string calldata _arg1, string calldata _arg2) external payable returns (bytes32 _id);\r\n    function query_withGasLimit(uint _timestamp, string calldata _datasource, string calldata _arg, uint _gasLimit) external payable returns (bytes32 _id);\r\n    function queryN_withGasLimit(uint _timestamp, string calldata _datasource, bytes calldata _argN, uint _gasLimit) external payable returns (bytes32 _id);\r\n    function query2_withGasLimit(uint _timestamp, string calldata _datasource, string calldata _arg1, string calldata _arg2, uint _gasLimit) external payable returns (bytes32 _id);\r\n}\r\n\r\ninterface OracleAddrResolverI {\r\n    function getAddress() external returns (address _address);\r\n}\r\n/*\r\nBegin solidity-cborutils\r\nhttps://github.com/smartcontractkit/solidity-cborutils\r\nMIT License\r\nCopyright (c) 2018 SmartContract ChainLink, Ltd.\r\nPermission is hereby granted, free of charge, to any person obtaining a copy\r\nof this software and associated documentation files (the \"Software\"), to deal\r\nin the Software without restriction, including without limitation the rights\r\nto use, copy, modify, merge, publish, distribute, sublicense, and/or sell\r\ncopies of the Software, and to permit persons to whom the Software is\r\nfurnished to do so, subject to the following conditions:\r\nThe above copyright notice and this permission notice shall be included in all\r\ncopies or substantial portions of the Software.\r\nTHE SOFTWARE IS PROVIDED \"AS IS\", WITHOUT WARRANTY OF ANY KIND, EXPRESS OR\r\nIMPLIED, INCLUDING BUT NOT LIMITED TO THE WARRANTIES OF MERCHANTABILITY,\r\nFITNESS FOR A PARTICULAR PURPOSE AND NONINFRINGEMENT. IN NO EVENT SHALL THE\r\nAUTHORS OR COPYRIGHT HOLDERS BE LIABLE FOR ANY CLAIM, DAMAGES OR OTHER\r\nLIABILITY, WHETHER IN AN ACTION OF CONTRACT, TORT OR OTHERWISE, ARISING FROM,\r\nOUT OF OR IN CONNECTION WITH THE SOFTWARE OR THE USE OR OTHER DEALINGS IN THE\r\nSOFTWARE.\r\n*/\r\nlibrary Buffer {\r\n\r\n    struct buffer {\r\n        bytes buf;\r\n        uint capacity;\r\n    }\r\n\r\n    function init(buffer memory _buf, uint _capacity) internal pure {\r\n        uint capacity = _capacity;\r\n        if (capacity % 32 != 0) {\r\n            capacity += 32 - (capacity % 32);\r\n        }\r\n        _buf.capacity = capacity; // Allocate space for the buffer data\r\n        assembly {\r\n            let ptr := mload(0x40)\r\n            mstore(_buf, ptr)\r\n            mstore(ptr, 0)\r\n            mstore(0x40, add(ptr, capacity))\r\n        }\r\n    }\r\n\r\n    function resize(buffer memory _buf, uint _capacity) private pure {\r\n        bytes memory oldbuf = _buf.buf;\r\n        init(_buf, _capacity);\r\n        append(_buf, oldbuf);\r\n    }\r\n\r\n    function max(uint _a, uint _b) private pure returns (uint _max) {\r\n        if (_a > _b) {\r\n            return _a;\r\n        }\r\n        return _b;\r\n    }\r\n    /**\r\n      * @dev Appends a byte array to the end of the buffer. Resizes if doing so\r\n      *      would exceed the capacity of the buffer.\r\n      * @param _buf The buffer to append to.\r\n      * @param _data The data to append.\r\n      * @return _buffer The original buffer.\r\n      *\r\n      */\r\n    function append(buffer memory _buf, bytes memory _data) internal pure returns (buffer memory _buffer) {\r\n        if (_data.length + _buf.buf.length > _buf.capacity) {\r\n            resize(_buf, max(_buf.capacity, _data.length) * 2);\r\n        }\r\n        uint dest;\r\n        uint src;\r\n        uint len = _data.length;\r\n        assembly {\r\n            let bufptr := mload(_buf) // Memory address of the buffer data\r\n            let buflen := mload(bufptr) // Length of existing buffer data\r\n            dest := add(add(bufptr, buflen), 32) // Start address = buffer address + buffer length + sizeof(buffer length)\r\n            mstore(bufptr, add(buflen, mload(_data))) // Update buffer length\r\n            src := add(_data, 32)\r\n        }\r\n        for(; len >= 32; len -= 32) { // Copy word-length chunks while possible\r\n            assembly {\r\n                mstore(dest, mload(src))\r\n            }\r\n            dest += 32;\r\n            src += 32;\r\n        }\r\n        uint mask = 256 ** (32 - len) - 1; // Copy remaining bytes\r\n        assembly {\r\n            let srcpart := and(mload(src), not(mask))\r\n            let destpart := and(mload(dest), mask)\r\n            mstore(dest, or(destpart, srcpart))\r\n        }\r\n        return _buf;\r\n    }\r\n    /**\r\n      *\r\n      * @dev Appends a byte to the end of the buffer. Resizes if doing so would\r\n      * exceed the capacity of the buffer.\r\n      * @param _buf The buffer to append to.\r\n      * @param _data The data to append.\r\n      *\r\n      */\r\n    function append(buffer memory _buf, uint8 _data) internal pure {\r\n        if (_buf.buf.length + 1 > _buf.capacity) {\r\n            resize(_buf, _buf.capacity * 2);\r\n        }\r\n        assembly {\r\n            let bufptr := mload(_buf) // Memory address of the buffer data\r\n            let buflen := mload(bufptr) // Length of existing buffer data\r\n            let dest := add(add(bufptr, buflen), 32) // Address = buffer address + buffer length + sizeof(buffer length)\r\n            mstore8(dest, _data)\r\n            mstore(bufptr, add(buflen, 1)) // Update buffer length\r\n        }\r\n    }\r\n    /**\r\n      *\r\n      * @dev Appends a byte to the end of the buffer. Resizes if doing so would\r\n      * exceed the capacity of the buffer.\r\n      * @param _buf The buffer to append to.\r\n      * @param _data The data to append.\r\n      * @return _buffer The original buffer.\r\n      *\r\n      */\r\n    function appendInt(buffer memory _buf, uint _data, uint _len) internal pure returns (buffer memory _buffer) {\r\n        if (_len + _buf.buf.length > _buf.capacity) {\r\n            resize(_buf, max(_buf.capacity, _len) * 2);\r\n        }\r\n        uint mask = 256 ** _len - 1;\r\n        assembly {\r\n            let bufptr := mload(_buf) // Memory address of the buffer data\r\n            let buflen := mload(bufptr) // Length of existing buffer data\r\n            let dest := add(add(bufptr, buflen), _len) // Address = buffer address + buffer length + sizeof(buffer length) + len\r\n            mstore(dest, or(and(mload(dest), not(mask)), _data))\r\n            mstore(bufptr, add(buflen, _len)) // Update buffer length\r\n        }\r\n        return _buf;\r\n    }\r\n}\r\n\r\nlibrary CBOR {\r\n\r\n    using Buffer for Buffer.buffer;\r\n\r\n    uint8 private constant MAJOR_TYPE_INT = 0;\r\n    uint8 private constant MAJOR_TYPE_MAP = 5;\r\n    uint8 private constant MAJOR_TYPE_BYTES = 2;\r\n    uint8 private constant MAJOR_TYPE_ARRAY = 4;\r\n    uint8 private constant MAJOR_TYPE_STRING = 3;\r\n    uint8 private constant MAJOR_TYPE_NEGATIVE_INT = 1;\r\n    uint8 private constant MAJOR_TYPE_CONTENT_FREE = 7;\r\n\r\n    function encodeType(Buffer.buffer memory _buf, uint8 _major, uint _value) private pure {\r\n        if (_value <= 23) {\r\n            _buf.append(uint8((_major << 5) | _value));\r\n        } else if (_value <= 0xFF) {\r\n            _buf.append(uint8((_major << 5) | 24));\r\n            _buf.appendInt(_value, 1);\r\n        } else if (_value <= 0xFFFF) {\r\n            _buf.append(uint8((_major << 5) | 25));\r\n            _buf.appendInt(_value, 2);\r\n        } else if (_value <= 0xFFFFFFFF) {\r\n            _buf.append(uint8((_major << 5) | 26));\r\n            _buf.appendInt(_value, 4);\r\n        } else if (_value <= 0xFFFFFFFFFFFFFFFF) {\r\n            _buf.append(uint8((_major << 5) | 27));\r\n            _buf.appendInt(_value, 8);\r\n        }\r\n    }\r\n\r\n    function encodeIndefiniteLengthType(Buffer.buffer memory _buf, uint8 _major) private pure {\r\n        _buf.append(uint8((_major << 5) | 31));\r\n    }\r\n\r\n    function encodeUInt(Buffer.buffer memory _buf, uint _value) internal pure {\r\n        encodeType(_buf, MAJOR_TYPE_INT, _value);\r\n    }\r\n\r\n    function encodeInt(Buffer.buffer memory _buf, int _value) internal pure {\r\n        if (_value >= 0) {\r\n            encodeType(_buf, MAJOR_TYPE_INT, uint(_value));\r\n        } else {\r\n            encodeType(_buf, MAJOR_TYPE_NEGATIVE_INT, uint(-1 - _value));\r\n        }\r\n    }\r\n\r\n    function encodeBytes(Buffer.buffer memory _buf, bytes memory _value) internal pure {\r\n        encodeType(_buf, MAJOR_TYPE_BYTES, _value.length);\r\n        _buf.append(_value);\r\n    }\r\n\r\n    function encodeString(Buffer.buffer memory _buf, string memory _value) internal pure {\r\n        encodeType(_buf, MAJOR_TYPE_STRING, bytes(_value).length);\r\n        _buf.append(bytes(_value));\r\n    }\r\n\r\n    function startArray(Buffer.buffer memory _buf) internal pure {\r\n        encodeIndefiniteLengthType(_buf, MAJOR_TYPE_ARRAY);\r\n    }\r\n\r\n    function startMap(Buffer.buffer memory _buf) internal pure {\r\n        encodeIndefiniteLengthType(_buf, MAJOR_TYPE_MAP);\r\n    }\r\n\r\n    function endSequence(Buffer.buffer memory _buf) internal pure {\r\n        encodeIndefiniteLengthType(_buf, MAJOR_TYPE_CONTENT_FREE);\r\n    }\r\n}\r\n/*\r\nEnd solidity-cborutils\r\n*/\r\ncontract usingProvable {\r\n\r\n    using CBOR for Buffer.buffer;\r\n\r\n    ProvableI provable;\r\n    OracleAddrResolverI OAR;\r\n\r\n    uint constant day = 60 * 60 * 24;\r\n    uint constant week = 60 * 60 * 24 * 7;\r\n    uint constant month = 60 * 60 * 24 * 30;\r\n\r\n    bytes1 constant proofType_NONE = 0x00;\r\n    bytes1 constant proofType_Ledger = 0x30;\r\n    bytes1 constant proofType_Native = 0xF0;\r\n    bytes1 constant proofStorage_IPFS = 0x01;\r\n    bytes1 constant proofType_Android = 0x40;\r\n    bytes1 constant proofType_TLSNotary = 0x10;\r\n\r\n    string provable_network_name;\r\n    uint8 constant networkID_auto = 0;\r\n    uint8 constant networkID_morden = 2;\r\n    uint8 constant networkID_mainnet = 1;\r\n    uint8 constant networkID_testnet = 2;\r\n    uint8 constant networkID_consensys = 161;\r\n\r\n    mapping(bytes32 => bytes32) provable_randomDS_args;\r\n    mapping(bytes32 => bool) provable_randomDS_sessionKeysHashVerified;\r\n\r\n    modifier provableAPI {\r\n        if ((address(OAR) == address(0)) || (getCodeSize(address(OAR)) == 0)) {\r\n            provable_setNetwork(networkID_auto);\r\n        }\r\n        if (address(provable) != OAR.getAddress()) {\r\n            provable = ProvableI(OAR.getAddress());\r\n        }\r\n        _;\r\n    }\r\n\r\n    modifier provable_randomDS_proofVerify(bytes32 _queryId, string memory _result, bytes memory _proof) {\r\n        // RandomDS Proof Step 1: The prefix has to match 'LP\\x01' (Ledger Proof version 1)\r\n        require((_proof[0] == \"L\") && (_proof[1] == \"P\") && (uint8(_proof[2]) == uint8(1)));\r\n        bool proofVerified = provable_randomDS_proofVerify__main(_proof, _queryId, bytes(_result), provable_getNetworkName());\r\n        require(proofVerified);\r\n        _;\r\n    }\r\n\r\n    function provable_setNetwork(uint8 _networkID) internal returns (bool _networkSet) {\r\n        _networkID; // NOTE: Silence the warning and remain backwards compatible\r\n        return provable_setNetwork();\r\n    }\r\n\r\n    function provable_setNetworkName(string memory _network_name) internal {\r\n        provable_network_name = _network_name;\r\n    }\r\n\r\n    function provable_getNetworkName() internal view returns (string memory _networkName) {\r\n        return provable_network_name;\r\n    }\r\n\r\n    function provable_setNetwork() internal returns (bool _networkSet) {\r\n        if (getCodeSize(0x1d3B2638a7cC9f2CB3D298A3DA7a90B67E5506ed) > 0) { //mainnet\r\n            OAR = OracleAddrResolverI(0x1d3B2638a7cC9f2CB3D298A3DA7a90B67E5506ed);\r\n            provable_setNetworkName(\"eth_mainnet\");\r\n            return true;\r\n        }\r\n        if (getCodeSize(0xc03A2615D5efaf5F49F60B7BB6583eaec212fdf1) > 0) { //ropsten testnet\r\n            OAR = OracleAddrResolverI(0xc03A2615D5efaf5F49F60B7BB6583eaec212fdf1);\r\n            provable_setNetworkName(\"eth_ropsten3\");\r\n            return true;\r\n        }\r\n        if (getCodeSize(0xB7A07BcF2Ba2f2703b24C0691b5278999C59AC7e) > 0) { //kovan testnet\r\n            OAR = OracleAddrResolverI(0xB7A07BcF2Ba2f2703b24C0691b5278999C59AC7e);\r\n            provable_setNetworkName(\"eth_kovan\");\r\n            return true;\r\n        }\r\n        if (getCodeSize(0x146500cfd35B22E4A392Fe0aDc06De1a1368Ed48) > 0) { //rinkeby testnet\r\n            OAR = OracleAddrResolverI(0x146500cfd35B22E4A392Fe0aDc06De1a1368Ed48);\r\n            provable_setNetworkName(\"eth_rinkeby\");\r\n            return true;\r\n        }\r\n        if (getCodeSize(0xa2998EFD205FB9D4B4963aFb70778D6354ad3A41) > 0) { //goerli testnet\r\n            OAR = OracleAddrResolverI(0xa2998EFD205FB9D4B4963aFb70778D6354ad3A41);\r\n            provable_setNetworkName(\"eth_goerli\");\r\n            return true;\r\n        }\r\n        if (getCodeSize(0x6f485C8BF6fc43eA212E93BBF8ce046C7f1cb475) > 0) { //ethereum-bridge\r\n            OAR = OracleAddrResolverI(0x6f485C8BF6fc43eA212E93BBF8ce046C7f1cb475);\r\n            return true;\r\n        }\r\n        if (getCodeSize(0x20e12A1F859B3FeaE5Fb2A0A32C18F5a65555bBF) > 0) { //ether.camp ide\r\n            OAR = OracleAddrResolverI(0x20e12A1F859B3FeaE5Fb2A0A32C18F5a65555bBF);\r\n            return true;\r\n        }\r\n        if (getCodeSize(0x51efaF4c8B3C9AfBD5aB9F4bbC82784Ab6ef8fAA) > 0) { //browser-solidity\r\n            OAR = OracleAddrResolverI(0x51efaF4c8B3C9AfBD5aB9F4bbC82784Ab6ef8fAA);\r\n            return true;\r\n        }\r\n        return false;\r\n    }\r\n    /**\r\n     * @dev The following `__callback` functions are just placeholders ideally\r\n     *      meant to be defined in child contract when proofs are used.\r\n     *      The function bodies simply silence compiler warnings.\r\n     */\r\n    function __callback(bytes32 _myid, string memory _result) virtual public {\r\n        __callback(_myid, _result, new bytes(0));\r\n    }\r\n\r\n    function __callback(bytes32 _myid, string memory _result, bytes memory _proof) virtual public {\r\n        _myid; _result; _proof;\r\n        provable_randomDS_args[bytes32(0)] = bytes32(0);\r\n    }\r\n\r\n    function provable_getPrice(string memory _datasource) provableAPI internal returns (uint _queryPrice) {\r\n        return provable.getPrice(_datasource);\r\n    }\r\n\r\n    function provable_getPrice(string memory _datasource, uint _gasLimit) provableAPI internal returns (uint _queryPrice) {\r\n        return provable.getPrice(_datasource, _gasLimit);\r\n    }\r\n\r\n    function provable_query(string memory _datasource, string memory _arg) provableAPI internal returns (bytes32 _id) {\r\n        uint price = provable.getPrice(_datasource);\r\n        if (price > 1 ether + tx.gasprice * 200000) {\r\n            return 0; // Unexpectedly high price\r\n        }\r\n        return provable.query{value: price}(0, _datasource, _arg);\r\n    }\r\n\r\n    function provable_query(uint _timestamp, string memory _datasource, string memory _arg) provableAPI internal returns (bytes32 _id) {\r\n        uint price = provable.getPrice(_datasource);\r\n        if (price > 1 ether + tx.gasprice * 200000) {\r\n            return 0; // Unexpectedly high price\r\n        }\r\n        return provable.query{value: price}(_timestamp, _datasource, _arg);\r\n    }\r\n\r\n    function provable_query(uint _timestamp, string memory _datasource, string memory _arg, uint _gasLimit) provableAPI internal returns (bytes32 _id) {\r\n        uint price = provable.getPrice(_datasource,_gasLimit);\r\n        if (price > 1 ether + tx.gasprice * _gasLimit) {\r\n            return 0; // Unexpectedly high price\r\n        }\r\n        return provable.query_withGasLimit{value: price}(_timestamp, _datasource, _arg, _gasLimit);\r\n    }\r\n\r\n    function provable_query(string memory _datasource, string memory _arg, uint _gasLimit) provableAPI internal returns (bytes32 _id) {\r\n        uint price = provable.getPrice(_datasource, _gasLimit);\r\n        if (price > 1 ether + tx.gasprice * _gasLimit) {\r\n            return 0; // Unexpectedly high price\r\n        }\r\n        return provable.query_withGasLimit{value: price}(0, _datasource, _arg, _gasLimit);\r\n    }\r\n\r\n    function provable_query(string memory _datasource, string memory _arg1, string memory _arg2) provableAPI internal returns (bytes32 _id) {\r\n        uint price = provable.getPrice(_datasource);\r\n        if (price > 1 ether + tx.gasprice * 200000) {\r\n            return 0; // Unexpectedly high price\r\n        }\r\n        return provable.query2{value: price}(0, _datasource, _arg1, _arg2);\r\n    }\r\n\r\n    function provable_query(uint _timestamp, string memory _datasource, string memory _arg1, string memory _arg2) provableAPI internal returns (bytes32 _id) {\r\n        uint price = provable.getPrice(_datasource);\r\n        if (price > 1 ether + tx.gasprice * 200000) {\r\n            return 0; // Unexpectedly high price\r\n        }\r\n        return provable.query2{value: price}(_timestamp, _datasource, _arg1, _arg2);\r\n    }\r\n\r\n    function provable_query(uint _timestamp, string memory _datasource, string memory _arg1, string memory _arg2, uint _gasLimit) provableAPI internal returns (bytes32 _id) {\r\n        uint price = provable.getPrice(_datasource, _gasLimit);\r\n        if (price > 1 ether + tx.gasprice * _gasLimit) {\r\n            return 0; // Unexpectedly high price\r\n        }\r\n        return provable.query2_withGasLimit{value: price}(_timestamp, _datasource, _arg1, _arg2, _gasLimit);\r\n    }\r\n\r\n    function provable_query(string memory _datasource, string memory _arg1, string memory _arg2, uint _gasLimit) provableAPI internal returns (bytes32 _id) {\r\n        uint price = provable.getPrice(_datasource, _gasLimit);\r\n        if (price > 1 ether + tx.gasprice * _gasLimit) {\r\n            return 0; // Unexpectedly high price\r\n        }\r\n        return provable.query2_withGasLimit{value: price}(0, _datasource, _arg1, _arg2, _gasLimit);\r\n    }\r\n\r\n    function provable_query(string memory _datasource, string[] memory _argN) provableAPI internal returns (bytes32 _id) {\r\n        uint price = provable.getPrice(_datasource);\r\n        if (price > 1 ether + tx.gasprice * 200000) {\r\n            return 0; // Unexpectedly high price\r\n        }\r\n        bytes memory args = stra2cbor(_argN);\r\n        return provable.queryN{value: price}(0, _datasource, args);\r\n    }\r\n\r\n    function provable_query(uint _timestamp, string memory _datasource, string[] memory _argN) provableAPI internal returns (bytes32 _id) {\r\n        uint price = provable.getPrice(_datasource);\r\n        if (price > 1 ether + tx.gasprice * 200000) {\r\n            return 0; // Unexpectedly high price\r\n        }\r\n        bytes memory args = stra2cbor(_argN);\r\n        return provable.queryN{value: price}(_timestamp, _datasource, args);\r\n    }\r\n\r\n    function provable_query(uint _timestamp, string memory _datasource, string[] memory _argN, uint _gasLimit) provableAPI internal returns (bytes32 _id) {\r\n        uint price = provable.getPrice(_datasource, _gasLimit);\r\n        if (price > 1 ether + tx.gasprice * _gasLimit) {\r\n            return 0; // Unexpectedly high price\r\n        }\r\n        bytes memory args = stra2cbor(_argN);\r\n        return provable.queryN_withGasLimit{value: price}(_timestamp, _datasource, args, _gasLimit);\r\n    }\r\n\r\n    function provable_query(string memory _datasource, string[] memory _argN, uint _gasLimit) provableAPI internal returns (bytes32 _id) {\r\n        uint price = provable.getPrice(_datasource, _gasLimit);\r\n        if (price > 1 ether + tx.gasprice * _gasLimit) {\r\n            return 0; // Unexpectedly high price\r\n        }\r\n        bytes memory args = stra2cbor(_argN);\r\n        return provable.queryN_withGasLimit{value: price}(0, _datasource, args, _gasLimit);\r\n    }\r\n\r\n    function provable_query(string memory _datasource, string[1] memory _args) provableAPI internal returns (bytes32 _id) {\r\n        string[] memory dynargs = new string[](1);\r\n        dynargs[0] = _args[0];\r\n        return provable_query(_datasource, dynargs);\r\n    }\r\n\r\n    function provable_query(uint _timestamp, string memory _datasource, string[1] memory _args) provableAPI internal returns (bytes32 _id) {\r\n        string[] memory dynargs = new string[](1);\r\n        dynargs[0] = _args[0];\r\n        return provable_query(_timestamp, _datasource, dynargs);\r\n    }\r\n\r\n    function provable_query(uint _timestamp, string memory _datasource, string[1] memory _args, uint _gasLimit) provableAPI internal returns (bytes32 _id) {\r\n        string[] memory dynargs = new string[](1);\r\n        dynargs[0] = _args[0];\r\n        return provable_query(_timestamp, _datasource, dynargs, _gasLimit);\r\n    }\r\n\r\n    function provable_query(string memory _datasource, string[1] memory _args, uint _gasLimit) provableAPI internal returns (bytes32 _id) {\r\n        string[] memory dynargs = new string[](1);\r\n        dynargs[0] = _args[0];\r\n        return provable_query(_datasource, dynargs, _gasLimit);\r\n    }\r\n\r\n    function provable_query(string memory _datasource, string[2] memory _args) provableAPI internal returns (bytes32 _id) {\r\n        string[] memory dynargs = new string[](2);\r\n        dynargs[0] = _args[0];\r\n        dynargs[1] = _args[1];\r\n        return provable_query(_datasource, dynargs);\r\n    }\r\n\r\n    function provable_query(uint _timestamp, string memory _datasource, string[2] memory _args) provableAPI internal returns (bytes32 _id) {\r\n        string[] memory dynargs = new string[](2);\r\n        dynargs[0] = _args[0];\r\n        dynargs[1] = _args[1];\r\n        return provable_query(_timestamp, _datasource, dynargs);\r\n    }\r\n\r\n    function provable_query(uint _timestamp, string memory _datasource, string[2] memory _args, uint _gasLimit) provableAPI internal returns (bytes32 _id) {\r\n        string[] memory dynargs = new string[](2);\r\n        dynargs[0] = _args[0];\r\n        dynargs[1] = _args[1];\r\n        return provable_query(_timestamp, _datasource, dynargs, _gasLimit);\r\n    }\r\n\r\n    function provable_query(string memory _datasource, string[2] memory _args, uint _gasLimit) provableAPI internal returns (bytes32 _id) {\r\n        string[] memory dynargs = new string[](2);\r\n        dynargs[0] = _args[0];\r\n        dynargs[1] = _args[1];\r\n        return provable_query(_datasource, dynargs, _gasLimit);\r\n    }\r\n\r\n    function provable_query(string memory _datasource, string[3] memory _args) provableAPI internal returns (bytes32 _id) {\r\n        string[] memory dynargs = new string[](3);\r\n        dynargs[0] = _args[0];\r\n        dynargs[1] = _args[1];\r\n        dynargs[2] = _args[2];\r\n        return provable_query(_datasource, dynargs);\r\n    }\r\n\r\n    function provable_query(uint _timestamp, string memory _datasource, string[3] memory _args) provableAPI internal returns (bytes32 _id) {\r\n        string[] memory dynargs = new string[](3);\r\n        dynargs[0] = _args[0];\r\n        dynargs[1] = _args[1];\r\n        dynargs[2] = _args[2];\r\n        return provable_query(_timestamp, _datasource, dynargs);\r\n    }\r\n\r\n    function provable_query(uint _timestamp, string memory _datasource, string[3] memory _args, uint _gasLimit) provableAPI internal returns (bytes32 _id) {\r\n        string[] memory dynargs = new string[](3);\r\n        dynargs[0] = _args[0];\r\n        dynargs[1] = _args[1];\r\n        dynargs[2] = _args[2];\r\n        return provable_query(_timestamp, _datasource, dynargs, _gasLimit);\r\n    }\r\n\r\n    function provable_query(string memory _datasource, string[3] memory _args, uint _gasLimit) provableAPI internal returns (bytes32 _id) {\r\n        string[] memory dynargs = new string[](3);\r\n        dynargs[0] = _args[0];\r\n        dynargs[1] = _args[1];\r\n        dynargs[2] = _args[2];\r\n        return provable_query(_datasource, dynargs, _gasLimit);\r\n    }\r\n\r\n    function provable_query(string memory _datasource, string[4] memory _args) provableAPI internal returns (bytes32 _id) {\r\n        string[] memory dynargs = new string[](4);\r\n        dynargs[0] = _args[0];\r\n        dynargs[1] = _args[1];\r\n        dynargs[2] = _args[2];\r\n        dynargs[3] = _args[3];\r\n        return provable_query(_datasource, dynargs);\r\n    }\r\n\r\n    function provable_query(uint _timestamp, string memory _datasource, string[4] memory _args) provableAPI internal returns (bytes32 _id) {\r\n        string[] memory dynargs = new string[](4);\r\n        dynargs[0] = _args[0];\r\n        dynargs[1] = _args[1];\r\n        dynargs[2] = _args[2];\r\n        dynargs[3] = _args[3];\r\n        return provable_query(_timestamp, _datasource, dynargs);\r\n    }\r\n\r\n    function provable_query(uint _timestamp, string memory _datasource, string[4] memory _args, uint _gasLimit) provableAPI internal returns (bytes32 _id) {\r\n        string[] memory dynargs = new string[](4);\r\n        dynargs[0] = _args[0];\r\n        dynargs[1] = _args[1];\r\n        dynargs[2] = _args[2];\r\n        dynargs[3] = _args[3];\r\n        return provable_query(_timestamp, _datasource, dynargs, _gasLimit);\r\n    }\r\n\r\n    function provable_query(string memory _datasource, string[4] memory _args, uint _gasLimit) provableAPI internal returns (bytes32 _id) {\r\n        string[] memory dynargs = new string[](4);\r\n        dynargs[0] = _args[0];\r\n        dynargs[1] = _args[1];\r\n        dynargs[2] = _args[2];\r\n        dynargs[3] = _args[3];\r\n        return provable_query(_datasource, dynargs, _gasLimit);\r\n    }\r\n\r\n    function provable_query(string memory _datasource, string[5] memory _args) provableAPI internal returns (bytes32 _id) {\r\n        string[] memory dynargs = new string[](5);\r\n        dynargs[0] = _args[0];\r\n        dynargs[1] = _args[1];\r\n        dynargs[2] = _args[2];\r\n        dynargs[3] = _args[3];\r\n        dynargs[4] = _args[4];\r\n        return provable_query(_datasource, dynargs);\r\n    }\r\n\r\n    function provable_query(uint _timestamp, string memory _datasource, string[5] memory _args) provableAPI internal returns (bytes32 _id) {\r\n        string[] memory dynargs = new string[](5);\r\n        dynargs[0] = _args[0];\r\n        dynargs[1] = _args[1];\r\n        dynargs[2] = _args[2];\r\n        dynargs[3] = _args[3];\r\n        dynargs[4] = _args[4];\r\n        return provable_query(_timestamp, _datasource, dynargs);\r\n    }\r\n\r\n    function provable_query(uint _timestamp, string memory _datasource, string[5] memory _args, uint _gasLimit) provableAPI internal returns (bytes32 _id) {\r\n        string[] memory dynargs = new string[](5);\r\n        dynargs[0] = _args[0];\r\n        dynargs[1] = _args[1];\r\n        dynargs[2] = _args[2];\r\n        dynargs[3] = _args[3];\r\n        dynargs[4] = _args[4];\r\n        return provable_query(_timestamp, _datasource, dynargs, _gasLimit);\r\n    }\r\n\r\n    function provable_query(string memory _datasource, string[5] memory _args, uint _gasLimit) provableAPI internal returns (bytes32 _id) {\r\n        string[] memory dynargs = new string[](5);\r\n        dynargs[0] = _args[0];\r\n        dynargs[1] = _args[1];\r\n        dynargs[2] = _args[2];\r\n        dynargs[3] = _args[3];\r\n        dynargs[4] = _args[4];\r\n        return provable_query(_datasource, dynargs, _gasLimit);\r\n    }\r\n\r\n    function provable_query(string memory _datasource, bytes[] memory _argN) provableAPI internal returns (bytes32 _id) {\r\n        uint price = provable.getPrice(_datasource);\r\n        if (price > 1 ether + tx.gasprice * 200000) {\r\n            return 0; // Unexpectedly high price\r\n        }\r\n        bytes memory args = ba2cbor(_argN);\r\n        return provable.queryN{value: price}(0, _datasource, args);\r\n    }\r\n\r\n    function provable_query(uint _timestamp, string memory _datasource, bytes[] memory _argN) provableAPI internal returns (bytes32 _id) {\r\n        uint price = provable.getPrice(_datasource);\r\n        if (price > 1 ether + tx.gasprice * 200000) {\r\n            return 0; // Unexpectedly high price\r\n        }\r\n        bytes memory args = ba2cbor(_argN);\r\n        return provable.queryN{value: price}(_timestamp, _datasource, args);\r\n    }\r\n\r\n    function provable_query(uint _timestamp, string memory _datasource, bytes[] memory _argN, uint _gasLimit) provableAPI internal returns (bytes32 _id) {\r\n        uint price = provable.getPrice(_datasource, _gasLimit);\r\n        if (price > 1 ether + tx.gasprice * _gasLimit) {\r\n            return 0; // Unexpectedly high price\r\n        }\r\n        bytes memory args = ba2cbor(_argN);\r\n        return provable.queryN_withGasLimit{value: price}(_timestamp, _datasource, args, _gasLimit);\r\n    }\r\n\r\n    function provable_query(string memory _datasource, bytes[] memory _argN, uint _gasLimit) provableAPI internal returns (bytes32 _id) {\r\n        uint price = provable.getPrice(_datasource, _gasLimit);\r\n        if (price > 1 ether + tx.gasprice * _gasLimit) {\r\n            return 0; // Unexpectedly high price\r\n        }\r\n        bytes memory args = ba2cbor(_argN);\r\n        return provable.queryN_withGasLimit{value: price}(0, _datasource, args, _gasLimit);\r\n    }\r\n\r\n    function provable_query(string memory _datasource, bytes[1] memory _args) provableAPI internal returns (bytes32 _id) {\r\n        bytes[] memory dynargs = new bytes[](1);\r\n        dynargs[0] = _args[0];\r\n        return provable_query(_datasource, dynargs);\r\n    }\r\n\r\n    function provable_query(uint _timestamp, string memory _datasource, bytes[1] memory _args) provableAPI internal returns (bytes32 _id) {\r\n        bytes[] memory dynargs = new bytes[](1);\r\n        dynargs[0] = _args[0];\r\n        return provable_query(_timestamp, _datasource, dynargs);\r\n    }\r\n\r\n    function provable_query(uint _timestamp, string memory _datasource, bytes[1] memory _args, uint _gasLimit) provableAPI internal returns (bytes32 _id) {\r\n        bytes[] memory dynargs = new bytes[](1);\r\n        dynargs[0] = _args[0];\r\n        return provable_query(_timestamp, _datasource, dynargs, _gasLimit);\r\n    }\r\n\r\n    function provable_query(string memory _datasource, bytes[1] memory _args, uint _gasLimit) provableAPI internal returns (bytes32 _id) {\r\n        bytes[] memory dynargs = new bytes[](1);\r\n        dynargs[0] = _args[0];\r\n        return provable_query(_datasource, dynargs, _gasLimit);\r\n    }\r\n\r\n    function provable_query(string memory _datasource, bytes[2] memory _args) provableAPI internal returns (bytes32 _id) {\r\n        bytes[] memory dynargs = new bytes[](2);\r\n        dynargs[0] = _args[0];\r\n        dynargs[1] = _args[1];\r\n        return provable_query(_datasource, dynargs);\r\n    }\r\n\r\n    function provable_query(uint _timestamp, string memory _datasource, bytes[2] memory _args) provableAPI internal returns (bytes32 _id) {\r\n        bytes[] memory dynargs = new bytes[](2);\r\n        dynargs[0] = _args[0];\r\n        dynargs[1] = _args[1];\r\n        return provable_query(_timestamp, _datasource, dynargs);\r\n    }\r\n\r\n    function provable_query(uint _timestamp, string memory _datasource, bytes[2] memory _args, uint _gasLimit) provableAPI internal returns (bytes32 _id) {\r\n        bytes[] memory dynargs = new bytes[](2);\r\n        dynargs[0] = _args[0];\r\n        dynargs[1] = _args[1];\r\n        return provable_query(_timestamp, _datasource, dynargs, _gasLimit);\r\n    }\r\n\r\n    function provable_query(string memory _datasource, bytes[2] memory _args, uint _gasLimit) provableAPI internal returns (bytes32 _id) {\r\n        bytes[] memory dynargs = new bytes[](2);\r\n        dynargs[0] = _args[0];\r\n        dynargs[1] = _args[1];\r\n        return provable_query(_datasource, dynargs, _gasLimit);\r\n    }\r\n\r\n    function provable_query(string memory _datasource, bytes[3] memory _args) provableAPI internal returns (bytes32 _id) {\r\n        bytes[] memory dynargs = new bytes[](3);\r\n        dynargs[0] = _args[0];\r\n        dynargs[1] = _args[1];\r\n        dynargs[2] = _args[2];\r\n        return provable_query(_datasource, dynargs);\r\n    }\r\n\r\n    function provable_query(uint _timestamp, string memory _datasource, bytes[3] memory _args) provableAPI internal returns (bytes32 _id) {\r\n        bytes[] memory dynargs = new bytes[](3);\r\n        dynargs[0] = _args[0];\r\n        dynargs[1] = _args[1];\r\n        dynargs[2] = _args[2];\r\n        return provable_query(_timestamp, _datasource, dynargs);\r\n    }\r\n\r\n    function provable_query(uint _timestamp, string memory _datasource, bytes[3] memory _args, uint _gasLimit) provableAPI internal returns (bytes32 _id) {\r\n        bytes[] memory dynargs = new bytes[](3);\r\n        dynargs[0] = _args[0];\r\n        dynargs[1] = _args[1];\r\n        dynargs[2] = _args[2];\r\n        return provable_query(_timestamp, _datasource, dynargs, _gasLimit);\r\n    }\r\n\r\n    function provable_query(string memory _datasource, bytes[3] memory _args, uint _gasLimit) provableAPI internal returns (bytes32 _id) {\r\n        bytes[] memory dynargs = new bytes[](3);\r\n        dynargs[0] = _args[0];\r\n        dynargs[1] = _args[1];\r\n        dynargs[2] = _args[2];\r\n        return provable_query(_datasource, dynargs, _gasLimit);\r\n    }\r\n\r\n    function provable_query(string memory _datasource, bytes[4] memory _args) provableAPI internal returns (bytes32 _id) {\r\n        bytes[] memory dynargs = new bytes[](4);\r\n        dynargs[0] = _args[0];\r\n        dynargs[1] = _args[1];\r\n        dynargs[2] = _args[2];\r\n        dynargs[3] = _args[3];\r\n        return provable_query(_datasource, dynargs);\r\n    }\r\n\r\n    function provable_query(uint _timestamp, string memory _datasource, bytes[4] memory _args) provableAPI internal returns (bytes32 _id) {\r\n        bytes[] memory dynargs = new bytes[](4);\r\n        dynargs[0] = _args[0];\r\n        dynargs[1] = _args[1];\r\n        dynargs[2] = _args[2];\r\n        dynargs[3] = _args[3];\r\n        return provable_query(_timestamp, _datasource, dynargs);\r\n    }\r\n\r\n    function provable_query(uint _timestamp, string memory _datasource, bytes[4] memory _args, uint _gasLimit) provableAPI internal returns (bytes32 _id) {\r\n        bytes[] memory dynargs = new bytes[](4);\r\n        dynargs[0] = _args[0];\r\n        dynargs[1] = _args[1];\r\n        dynargs[2] = _args[2];\r\n        dynargs[3] = _args[3];\r\n        return provable_query(_timestamp, _datasource, dynargs, _gasLimit);\r\n    }\r\n\r\n    function provable_query(string memory _datasource, bytes[4] memory _args, uint _gasLimit) provableAPI internal returns (bytes32 _id) {\r\n        bytes[] memory dynargs = new bytes[](4);\r\n        dynargs[0] = _args[0];\r\n        dynargs[1] = _args[1];\r\n        dynargs[2] = _args[2];\r\n        dynargs[3] = _args[3];\r\n        return provable_query(_datasource, dynargs, _gasLimit);\r\n    }\r\n\r\n    function provable_query(string memory _datasource, bytes[5] memory _args) provableAPI internal returns (bytes32 _id) {\r\n        bytes[] memory dynargs = new bytes[](5);\r\n        dynargs[0] = _args[0];\r\n        dynargs[1] = _args[1];\r\n        dynargs[2] = _args[2];\r\n        dynargs[3] = _args[3];\r\n        dynargs[4] = _args[4];\r\n        return provable_query(_datasource, dynargs);\r\n    }\r\n\r\n    function provable_query(uint _timestamp, string memory _datasource, bytes[5] memory _args) provableAPI internal returns (bytes32 _id) {\r\n        bytes[] memory dynargs = new bytes[](5);\r\n        dynargs[0] = _args[0];\r\n        dynargs[1] = _args[1];\r\n        dynargs[2] = _args[2];\r\n        dynargs[3] = _args[3];\r\n        dynargs[4] = _args[4];\r\n        return provable_query(_timestamp, _datasource, dynargs);\r\n    }\r\n\r\n    function provable_query(uint _timestamp, string memory _datasource, bytes[5] memory _args, uint _gasLimit) provableAPI internal returns (bytes32 _id) {\r\n        bytes[] memory dynargs = new bytes[](5);\r\n        dynargs[0] = _args[0];\r\n        dynargs[1] = _args[1];\r\n        dynargs[2] = _args[2];\r\n        dynargs[3] = _args[3];\r\n        dynargs[4] = _args[4];\r\n        return provable_query(_timestamp, _datasource, dynargs, _gasLimit);\r\n    }\r\n\r\n    function provable_query(string memory _datasource, bytes[5] memory _args, uint _gasLimit) provableAPI internal returns (bytes32 _id) {\r\n        bytes[] memory dynargs = new bytes[](5);\r\n        dynargs[0] = _args[0];\r\n        dynargs[1] = _args[1];\r\n        dynargs[2] = _args[2];\r\n        dynargs[3] = _args[3];\r\n        dynargs[4] = _args[4];\r\n        return provable_query(_datasource, dynargs, _gasLimit);\r\n    }\r\n\r\n    function provable_setProof(bytes1 _proofP) provableAPI internal {\r\n        return provable.setProofType(_proofP);\r\n    }\r\n\r\n\r\n    function provable_cbAddress() provableAPI internal returns (address _callbackAddress) {\r\n        return provable.cbAddress();\r\n    }\r\n\r\n    function getCodeSize(address _addr) view internal returns (uint _size) {\r\n        assembly {\r\n            _size := extcodesize(_addr)\r\n        }\r\n    }\r\n\r\n    function provable_setCustomGasPrice(uint _gasPrice) provableAPI internal {\r\n        return provable.setCustomGasPrice(_gasPrice);\r\n    }\r\n\r\n    function provable_randomDS_getSessionPubKeyHash() provableAPI internal returns (bytes32 _sessionKeyHash) {\r\n        return provable.randomDS_getSessionPubKeyHash();\r\n    }\r\n\r\n    function parseAddr(string memory _a) internal pure returns (address _parsedAddress) {\r\n        bytes memory tmp = bytes(_a);\r\n        uint160 iaddr = 0;\r\n        uint160 b1;\r\n        uint160 b2;\r\n        for (uint i = 2; i < 2 + 2 * 20; i += 2) {\r\n            iaddr *= 256;\r\n            b1 = uint160(uint8(tmp[i]));\r\n            b2 = uint160(uint8(tmp[i + 1]));\r\n            if ((b1 >= 97) && (b1 <= 102)) {\r\n                b1 -= 87;\r\n            } else if ((b1 >= 65) && (b1 <= 70)) {\r\n                b1 -= 55;\r\n            } else if ((b1 >= 48) && (b1 <= 57)) {\r\n                b1 -= 48;\r\n            }\r\n            if ((b2 >= 97) && (b2 <= 102)) {\r\n                b2 -= 87;\r\n            } else if ((b2 >= 65) && (b2 <= 70)) {\r\n                b2 -= 55;\r\n            } else if ((b2 >= 48) && (b2 <= 57)) {\r\n                b2 -= 48;\r\n            }\r\n            iaddr += (b1 * 16 + b2);\r\n        }\r\n        return address(iaddr);\r\n    }\r\n\r\n    function strCompare(string memory _a, string memory _b) internal pure returns (int _returnCode) {\r\n        bytes memory a = bytes(_a);\r\n        bytes memory b = bytes(_b);\r\n        uint minLength = a.length;\r\n        if (b.length < minLength) {\r\n            minLength = b.length;\r\n        }\r\n        for (uint i = 0; i < minLength; i ++) {\r\n            if (a[i] < b[i]) {\r\n                return -1;\r\n            } else if (a[i] > b[i]) {\r\n                return 1;\r\n            }\r\n        }\r\n        if (a.length < b.length) {\r\n            return -1;\r\n        } else if (a.length > b.length) {\r\n            return 1;\r\n        } else {\r\n            return 0;\r\n        }\r\n    }\r\n\r\n    function indexOf(string memory _haystack, string memory _needle) internal pure returns (int _returnCode) {\r\n        bytes memory h = bytes(_haystack);\r\n        bytes memory n = bytes(_needle);\r\n        if (h.length < 1 || n.length < 1 || (n.length > h.length)) {\r\n            return -1;\r\n        } else if (h.length > (2 ** 128 - 1)) {\r\n            return -1;\r\n        } else {\r\n            uint subindex = 0;\r\n            for (uint i = 0; i < h.length; i++) {\r\n                if (h[i] == n[0]) {\r\n                    subindex = 1;\r\n                    while(subindex < n.length && (i + subindex) < h.length && h[i + subindex] == n[subindex]) {\r\n                        subindex++;\r\n                    }\r\n                    if (subindex == n.length) {\r\n                        return int(i);\r\n                    }\r\n                }\r\n            }\r\n            return -1;\r\n        }\r\n    }\r\n\r\n    function strConcat(string memory _a, string memory _b) internal pure returns (string memory _concatenatedString) {\r\n        return strConcat(_a, _b, \"\", \"\", \"\");\r\n    }\r\n\r\n    function strConcat(string memory _a, string memory _b, string memory _c) internal pure returns (string memory _concatenatedString) {\r\n        return strConcat(_a, _b, _c, \"\", \"\");\r\n    }\r\n\r\n    function strConcat(string memory _a, string memory _b, string memory _c, string memory _d) internal pure returns (string memory _concatenatedString) {\r\n        return strConcat(_a, _b, _c, _d, \"\");\r\n    }\r\n\r\n    function strConcat(string memory _a, string memory _b, string memory _c, string memory _d, string memory _e) internal pure returns (string memory _concatenatedString) {\r\n        bytes memory _ba = bytes(_a);\r\n        bytes memory _bb = bytes(_b);\r\n        bytes memory _bc = bytes(_c);\r\n        bytes memory _bd = bytes(_d);\r\n        bytes memory _be = bytes(_e);\r\n        string memory abcde = new string(_ba.length + _bb.length + _bc.length + _bd.length + _be.length);\r\n        bytes memory babcde = bytes(abcde);\r\n        uint k = 0;\r\n        uint i = 0;\r\n        for (i = 0; i < _ba.length; i++) {\r\n            babcde[k++] = _ba[i];\r\n        }\r\n        for (i = 0; i < _bb.length; i++) {\r\n            babcde[k++] = _bb[i];\r\n        }\r\n        for (i = 0; i < _bc.length; i++) {\r\n            babcde[k++] = _bc[i];\r\n        }\r\n        for (i = 0; i < _bd.length; i++) {\r\n            babcde[k++] = _bd[i];\r\n        }\r\n        for (i = 0; i < _be.length; i++) {\r\n            babcde[k++] = _be[i];\r\n        }\r\n        return string(babcde);\r\n    }\r\n\r\n    function safeParseInt(string memory _a) internal pure returns (uint _parsedInt) {\r\n        return safeParseInt(_a, 0);\r\n    }\r\n\r\n    function safeParseInt(string memory _a, uint _b) internal pure returns (uint _parsedInt) {\r\n        bytes memory bresult = bytes(_a);\r\n        uint mint = 0;\r\n        bool decimals = false;\r\n        for (uint i = 0; i < bresult.length; i++) {\r\n            if ((uint(uint8(bresult[i])) >= 48) && (uint(uint8(bresult[i])) <= 57)) {\r\n                if (decimals) {\r\n                    if (_b == 0) break;\r\n                    else _b--;\r\n                }\r\n                mint *= 10;\r\n                mint += uint(uint8(bresult[i])) - 48;\r\n            } else if (uint(uint8(bresult[i])) == 46) {\r\n                require(!decimals, 'More than one decimal encountered in string!');\r\n                decimals = true;\r\n            } else {\r\n                revert(\"Non-numeral character encountered in string!\");\r\n            }\r\n        }\r\n        if (_b > 0) {\r\n            mint *= 10 ** _b;\r\n        }\r\n        return mint;\r\n    }\r\n\r\n    function parseInt(string memory _a) internal pure returns (uint _parsedInt) {\r\n        return parseInt(_a, 0);\r\n    }\r\n\r\n    function parseInt(string memory _a, uint _b) internal pure returns (uint _parsedInt) {\r\n        bytes memory bresult = bytes(_a);\r\n        uint mint = 0;\r\n        bool decimals = false;\r\n        for (uint i = 0; i < bresult.length; i++) {\r\n            if ((uint(uint8(bresult[i])) >= 48) && (uint(uint8(bresult[i])) <= 57)) {\r\n                if (decimals) {\r\n                    if (_b == 0) {\r\n                        break;\r\n                    } else {\r\n                        _b--;\r\n                    }\r\n                }\r\n                mint *= 10;\r\n                mint += uint(uint8(bresult[i])) - 48;\r\n            } else if (uint(uint8(bresult[i])) == 46) {\r\n                decimals = true;\r\n            }\r\n        }\r\n        if (_b > 0) {\r\n            mint *= 10 ** _b;\r\n        }\r\n        return mint;\r\n    }\r\n\r\n    function uint2str(uint256 _i) internal pure returns (string memory str)\r\n    {\r\n        if (_i == 0) {\r\n            return \"0\";\r\n        }\r\n        uint256 j = _i;\r\n        uint256 length;\r\n        while (j != 0) {\r\n            length++;\r\n            j /= 10;\r\n        }\r\n        bytes memory bstr = new bytes(length);\r\n        uint256 k = length;\r\n        j = _i;\r\n        while (j != 0) {\r\n            bstr[--k] = bytes1(uint8(48 + j % 10));\r\n            j /= 10;\r\n        }\r\n        str = string(bstr);\r\n    }\r\n\r\n    function stra2cbor(string[] memory _arr) internal pure returns (bytes memory _cborEncoding) {\r\n//        safeMemoryCleaner();\r\n        Buffer.buffer memory buf;\r\n        Buffer.init(buf, 1024);\r\n        buf.startArray();\r\n        for (uint i = 0; i < _arr.length; i++) {\r\n            buf.encodeString(_arr[i]);\r\n        }\r\n        buf.endSequence();\r\n        return buf.buf;\r\n    }\r\n\r\n    function ba2cbor(bytes[] memory _arr) internal pure returns (bytes memory _cborEncoding) {\r\n//        safeMemoryCleaner();\r\n        Buffer.buffer memory buf;\r\n        Buffer.init(buf, 1024);\r\n        buf.startArray();\r\n        for (uint i = 0; i < _arr.length; i++) {\r\n            buf.encodeBytes(_arr[i]);\r\n        }\r\n        buf.endSequence();\r\n        return buf.buf;\r\n    }\r\n\r\n    function provable_newRandomDSQuery(uint _delay, uint _nbytes, uint _customGasLimit) internal returns (bytes32 _queryId) {\r\n        require((_nbytes > 0) && (_nbytes <= 32));\r\n        _delay *= 10; // Convert from seconds to ledger timer ticks\r\n        bytes memory nbytes = new bytes(1);\r\n        nbytes[0] = bytes1(uint8(_nbytes));\r\n        bytes memory unonce = new bytes(32);\r\n        bytes memory sessionKeyHash = new bytes(32);\r\n        bytes32 sessionKeyHash_bytes32 = provable_randomDS_getSessionPubKeyHash();\r\n        assembly {\r\n            mstore(unonce, 0x20)\r\n        /*\r\n         The following variables can be relaxed.\r\n         Check the relaxed random contract at https://github.com/oraclize/ethereum-examples\r\n         for an idea on how to override and replace commit hash variables.\r\n        */\r\n            mstore(add(unonce, 0x20), xor(blockhash(sub(number(), 1)), xor(coinbase(), timestamp())))\r\n            mstore(sessionKeyHash, 0x20)\r\n            mstore(add(sessionKeyHash, 0x20), sessionKeyHash_bytes32)\r\n        }\r\n        bytes memory delay = new bytes(32);\r\n        assembly {\r\n            mstore(add(delay, 0x20), _delay)\r\n        }\r\n        bytes memory delay_bytes8 = new bytes(8);\r\n        copyBytes(delay, 24, 8, delay_bytes8, 0);\r\n        bytes[4] memory args = [unonce, nbytes, sessionKeyHash, delay];\r\n        bytes32 queryId = provable_query(\"random\", args, _customGasLimit);\r\n        bytes memory delay_bytes8_left = new bytes(8);\r\n        assembly {\r\n            let x := mload(add(delay_bytes8, 0x20))\r\n            mstore8(add(delay_bytes8_left, 0x27), div(x, 0x100000000000000000000000000000000000000000000000000000000000000))\r\n            mstore8(add(delay_bytes8_left, 0x26), div(x, 0x1000000000000000000000000000000000000000000000000000000000000))\r\n            mstore8(add(delay_bytes8_left, 0x25), div(x, 0x10000000000000000000000000000000000000000000000000000000000))\r\n            mstore8(add(delay_bytes8_left, 0x24), div(x, 0x100000000000000000000000000000000000000000000000000000000))\r\n            mstore8(add(delay_bytes8_left, 0x23), div(x, 0x1000000000000000000000000000000000000000000000000000000))\r\n            mstore8(add(delay_bytes8_left, 0x22), div(x, 0x10000000000000000000000000000000000000000000000000000))\r\n            mstore8(add(delay_bytes8_left, 0x21), div(x, 0x100000000000000000000000000000000000000000000000000))\r\n            mstore8(add(delay_bytes8_left, 0x20), div(x, 0x1000000000000000000000000000000000000000000000000))\r\n        }\r\n        provable_randomDS_setCommitment(queryId, keccak256(abi.encodePacked(delay_bytes8_left, args[1], sha256(args[0]), args[2])));\r\n        return queryId;\r\n    }\r\n\r\n    function provable_randomDS_setCommitment(bytes32 _queryId, bytes32 _commitment) internal {\r\n        provable_randomDS_args[_queryId] = _commitment;\r\n    }\r\n\r\n    function verifySig(bytes32 _tosignh, bytes memory _dersig, bytes memory _pubkey) internal returns (bool _sigVerified) {\r\n        bool sigok;\r\n        address signer;\r\n        bytes32 sigr;\r\n        bytes32 sigs;\r\n        bytes memory sigr_ = new bytes(32);\r\n        uint offset = 4 + (uint(uint8(_dersig[3])) - 0x20);\r\n        sigr_ = copyBytes(_dersig, offset, 32, sigr_, 0);\r\n        bytes memory sigs_ = new bytes(32);\r\n        offset += 32 + 2;\r\n        sigs_ = copyBytes(_dersig, offset + (uint(uint8(_dersig[offset - 1])) - 0x20), 32, sigs_, 0);\r\n        assembly {\r\n            sigr := mload(add(sigr_, 32))\r\n            sigs := mload(add(sigs_, 32))\r\n        }\r\n        (sigok, signer) = safer_ecrecover(_tosignh, 27, sigr, sigs);\r\n        if (address(uint160(uint256(keccak256(_pubkey)))) == signer) {\r\n            return true;\r\n        } else {\r\n            (sigok, signer) = safer_ecrecover(_tosignh, 28, sigr, sigs);\r\n            return (address(uint160(uint256(keccak256(_pubkey)))) == signer);\r\n        }\r\n    }\r\n\r\n    function provable_randomDS_proofVerify__sessionKeyValidity(bytes memory _proof, uint _sig2offset) internal returns (bool _proofVerified) {\r\n        bool sigok;\r\n        // Random DS Proof Step 6: Verify the attestation signature, APPKEY1 must sign the sessionKey from the correct ledger app (CODEHASH)\r\n        bytes memory sig2 = new bytes(uint(uint8(_proof[_sig2offset + 1])) + 2);\r\n        copyBytes(_proof, _sig2offset, sig2.length, sig2, 0);\r\n        bytes memory appkey1_pubkey = new bytes(64);\r\n        copyBytes(_proof, 3 + 1, 64, appkey1_pubkey, 0);\r\n        bytes memory tosign2 = new bytes(1 + 65 + 32);\r\n        tosign2[0] = bytes1(uint8(1)); //role\r\n        copyBytes(_proof, _sig2offset - 65, 65, tosign2, 1);\r\n        bytes memory CODEHASH = hex\"fd94fa71bc0ba10d39d464d0d8f465efeef0a2764e3887fcc9df41ded20f505c\";\r\n        copyBytes(CODEHASH, 0, 32, tosign2, 1 + 65);\r\n        sigok = verifySig(sha256(tosign2), sig2, appkey1_pubkey);\r\n        if (!sigok) {\r\n            return false;\r\n        }\r\n        // Random DS Proof Step 7: Verify the APPKEY1 provenance (must be signed by Ledger)\r\n        bytes memory LEDGERKEY = hex\"7fb956469c5c9b89840d55b43537e66a98dd4811ea0a27224272c2e5622911e8537a2f8e86a46baec82864e98dd01e9ccc2f8bc5dfc9cbe5a91a290498dd96e4\";\r\n        bytes memory tosign3 = new bytes(1 + 65);\r\n        tosign3[0] = 0xFE;\r\n        copyBytes(_proof, 3, 65, tosign3, 1);\r\n        bytes memory sig3 = new bytes(uint(uint8(_proof[3 + 65 + 1])) + 2);\r\n        copyBytes(_proof, 3 + 65, sig3.length, sig3, 0);\r\n        sigok = verifySig(sha256(tosign3), sig3, LEDGERKEY);\r\n        return sigok;\r\n    }\r\n\r\n    function provable_randomDS_proofVerify__returnCode(bytes32 _queryId, string memory _result, bytes memory _proof) internal returns (uint8 _returnCode) {\r\n        // Random DS Proof Step 1: The prefix has to match 'LP\\x01' (Ledger Proof version 1)\r\n        if ((_proof[0] != \"L\") || (_proof[1] != \"P\") || (uint8(_proof[2]) != uint8(1))) {\r\n            return 1;\r\n        }\r\n        bool proofVerified = provable_randomDS_proofVerify__main(_proof, _queryId, bytes(_result), provable_getNetworkName());\r\n        if (!proofVerified) {\r\n            return 2;\r\n        }\r\n        return 0;\r\n    }\r\n\r\n    function matchBytes32Prefix(bytes32 _content, bytes memory _prefix, uint _nRandomBytes) internal pure returns (bool _matchesPrefix) {\r\n        bool match_ = true;\r\n        require(_prefix.length == _nRandomBytes);\r\n        for (uint256 i = 0; i< _nRandomBytes; i++) {\r\n            if (_content[i] != _prefix[i]) {\r\n                match_ = false;\r\n            }\r\n        }\r\n        return match_;\r\n    }\r\n\r\n    function provable_randomDS_proofVerify__main(bytes memory _proof, bytes32 _queryId, bytes memory _result, string memory _contextName) internal returns (bool _proofVerified) {\r\n        // Random DS Proof Step 2: The unique keyhash has to match with the sha256 of (context name + _queryId)\r\n        uint ledgerProofLength = 3 + 65 + (uint(uint8(_proof[3 + 65 + 1])) + 2) + 32;\r\n        bytes memory keyhash = new bytes(32);\r\n        copyBytes(_proof, ledgerProofLength, 32, keyhash, 0);\r\n        if (!(keccak256(keyhash) == keccak256(abi.encodePacked(sha256(abi.encodePacked(_contextName, _queryId)))))) {\r\n            return false;\r\n        }\r\n        bytes memory sig1 = new bytes(uint(uint8(_proof[ledgerProofLength + (32 + 8 + 1 + 32) + 1])) + 2);\r\n        copyBytes(_proof, ledgerProofLength + (32 + 8 + 1 + 32), sig1.length, sig1, 0);\r\n        // Random DS Proof Step 3: We assume sig1 is valid (it will be verified during step 5) and we verify if '_result' is the _prefix of sha256(sig1)\r\n        if (!matchBytes32Prefix(sha256(sig1), _result, uint(uint8(_proof[ledgerProofLength + 32 + 8])))) {\r\n            return false;\r\n        }\r\n        // Random DS Proof Step 4: Commitment match verification, keccak256(delay, nbytes, unonce, sessionKeyHash) == commitment in storage.\r\n        // This is to verify that the computed args match with the ones specified in the query.\r\n        bytes memory commitmentSlice1 = new bytes(8 + 1 + 32);\r\n        copyBytes(_proof, ledgerProofLength + 32, 8 + 1 + 32, commitmentSlice1, 0);\r\n        bytes memory sessionPubkey = new bytes(64);\r\n        uint sig2offset = ledgerProofLength + 32 + (8 + 1 + 32) + sig1.length + 65;\r\n        copyBytes(_proof, sig2offset - 64, 64, sessionPubkey, 0);\r\n        bytes32 sessionPubkeyHash = sha256(sessionPubkey);\r\n        if (provable_randomDS_args[_queryId] == keccak256(abi.encodePacked(commitmentSlice1, sessionPubkeyHash))) { //unonce, nbytes and sessionKeyHash match\r\n            delete provable_randomDS_args[_queryId];\r\n        } else return false;\r\n        // Random DS Proof Step 5: Validity verification for sig1 (keyhash and args signed with the sessionKey)\r\n        bytes memory tosign1 = new bytes(32 + 8 + 1 + 32);\r\n        copyBytes(_proof, ledgerProofLength, 32 + 8 + 1 + 32, tosign1, 0);\r\n        if (!verifySig(sha256(tosign1), sig1, sessionPubkey)) {\r\n            return false;\r\n        }\r\n        // Verify if sessionPubkeyHash was verified already, if not.. let's do it!\r\n        if (!provable_randomDS_sessionKeysHashVerified[sessionPubkeyHash]) {\r\n            provable_randomDS_sessionKeysHashVerified[sessionPubkeyHash] = provable_randomDS_proofVerify__sessionKeyValidity(_proof, sig2offset);\r\n        }\r\n        return provable_randomDS_sessionKeysHashVerified[sessionPubkeyHash];\r\n    }\r\n    /*\r\n     The following function has been written by Alex Beregszaszi (@axic), use it under the terms of the MIT license\r\n    */\r\n    function copyBytes(bytes memory _from, uint _fromOffset, uint _length, bytes memory _to, uint _toOffset) internal pure returns (bytes memory _copiedBytes) {\r\n        uint minLength = _length + _toOffset;\r\n        require(_to.length >= minLength); // Buffer too small. Should be a better way?\r\n        uint i = 32 + _fromOffset; // NOTE: the offset 32 is added to skip the `size` field of both bytes variables\r\n        uint j = 32 + _toOffset;\r\n        while (i < (32 + _fromOffset + _length)) {\r\n            assembly {\r\n                let tmp := mload(add(_from, i))\r\n                mstore(add(_to, j), tmp)\r\n            }\r\n            i += 32;\r\n            j += 32;\r\n        }\r\n        return _to;\r\n    }\r\n    /*\r\n     The following function has been written by Alex Beregszaszi (@axic), use it under the terms of the MIT license\r\n     Duplicate Solidity's ecrecover, but catching the CALL return value\r\n    */\r\n    function safer_ecrecover(bytes32 _hash, uint8 _v, bytes32 _r, bytes32 _s) internal returns (bool _success, address _recoveredAddress) {\r\n        /*\r\n         We do our own memory management here. Solidity uses memory offset\r\n         0x40 to store the current end of memory. We write past it (as\r\n         writes are memory extensions), but don't update the offset so\r\n         Solidity will reuse it. The memory used here is only needed for\r\n         this context.\r\n         FIXME: inline assembly can't access return values\r\n        */\r\n        bool ret;\r\n        address addr;\r\n        assembly {\r\n            let size := mload(0x40)\r\n            mstore(size, _hash)\r\n            mstore(add(size, 32), _v)\r\n            mstore(add(size, 64), _r)\r\n            mstore(add(size, 96), _s)\r\n            ret := call(3000, 1, 0, size, 128, size, 32) // NOTE: we can reuse the request memory because we deal with the return code.\r\n            addr := mload(size)\r\n        }\r\n        return (ret, addr);\r\n    }\r\n    /*\r\n     The following function has been written by Alex Beregszaszi (@axic), use it under the terms of the MIT license\r\n    */\r\n    function ecrecovery(bytes32 _hash, bytes memory _sig) internal returns (bool _success, address _recoveredAddress) {\r\n        bytes32 r;\r\n        bytes32 s;\r\n        uint8 v;\r\n        if (_sig.length != 65) {\r\n            return (false, address(0));\r\n        }\r\n        /*\r\n         The signature format is a compact form of:\r\n           {bytes32 r}{bytes32 s}{uint8 v}\r\n         Compact means, uint8 is not padded to 32 bytes.\r\n        */\r\n        assembly {\r\n            r := mload(add(_sig, 32))\r\n            s := mload(add(_sig, 64))\r\n        /*\r\n         Here we are loading the last 32 bytes. We exploit the fact that\r\n         'mload' will pad with zeroes if we overread.\r\n         There is no 'mload8' to do this, but that would be nicer.\r\n        */\r\n            v := and(mload(add(_sig, 65)), 255)\r\n        /*\r\n          Alternative solution:\r\n          'byte' is not working due to the Solidity parser, so lets\r\n          use the second best option, 'and'\r\n          v := and(mload(add(_sig, 65)), 255)\r\n        */\r\n        }\r\n        /*\r\n         albeit non-transactional signatures are not specified by the YP, one would expect it\r\n         to match the YP range of [27, 28]\r\n         geth uses [0, 1] and some clients have followed. This might change, see:\r\n         https://github.com/ethereum/go-ethereum/issues/2053\r\n        */\r\n        if (v < 27) {\r\n            v += 27;\r\n        }\r\n        if (v != 27 && v != 28) {\r\n            return (false, address(0));\r\n        }\r\n        return safer_ecrecover(_hash, v, r, s);\r\n    }\r\n\r\n//    function safeMemoryCleaner() internal pure {\r\n//        assembly {\r\n//            let fmem := mload(0x40)\r\n//            codecopy(fmem, codesize(), sub(msize(), fmem))\r\n//        }\r\n//    }\r\n}\r\n// </provableAPI>",
  "sourcePath": "/Users/cacikkong/Documents/Kola/dev/e2m_v3/contracts/provableAPI.sol",
  "compiler": {
    "name": "solc",
    "version": "0.8.7+commit.e28d00a7.Emscripten.clang"
  },
  "schemaVersion": "3.4.7",
  "updatedAt": "2022-05-28T19:13:41.994Z",
  "devdoc": {
    "kind": "dev",
    "methods": {
      "__callback(bytes32,string)": {
        "details": "The following `__callback` functions are just placeholders ideally      meant to be defined in child contract when proofs are used.      The function bodies simply silence compiler warnings."
      }
    },
    "version": 1
  },
  "userdoc": {
    "kind": "user",
    "methods": {},
    "version": 1
  }
}